{"contracts/YieldOptimizer.sol":{"YieldOptimizer":{"abi":[{"inputs":[],"name":"EnforcedPause","type":"error"},{"inputs":[],"name":"ExpectedPause","type":"error"},{"inputs":[],"name":"InvalidInitialization","type":"error"},{"inputs":[],"name":"NotInitializing","type":"error"},{"inputs":[{"internalType":"address","name":"owner","type":"address"}],"name":"OwnableInvalidOwner","type":"error"},{"inputs":[{"internalType":"address","name":"account","type":"address"}],"name":"OwnableUnauthorizedAccount","type":"error"},{"inputs":[],"name":"ReentrancyGuardReentrantCall","type":"error"},{"inputs":[{"internalType":"address","name":"token","type":"address"}],"name":"SafeERC20FailedOperation","type":"error"},{"anonymous":false,"inputs":[{"indexed":false,"internalType":"address","name":"aiAgent","type":"address"},{"indexed":false,"internalType":"bool","name":"status","type":"bool"}],"name":"AIAuthorized","type":"event"},{"anonymous":false,"inputs":[{"indexed":true,"internalType":"bytes32","name":"strategyId","type":"bytes32"},{"indexed":false,"internalType":"uint256","name":"amount","type":"uint256"},{"indexed":false,"internalType":"string","name":"reason","type":"string"}],"name":"EmergencyExit","type":"event"},{"anonymous":false,"inputs":[{"indexed":false,"internalType":"uint64","name":"version","type":"uint64"}],"name":"Initialized","type":"event"},{"anonymous":false,"inputs":[{"indexed":true,"internalType":"address","name":"previousOwner","type":"address"},{"indexed":true,"internalType":"address","name":"newOwner","type":"address"}],"name":"OwnershipTransferred","type":"event"},{"anonymous":false,"inputs":[{"indexed":false,"internalType":"address","name":"account","type":"address"}],"name":"Paused","type":"event"},{"anonymous":false,"inputs":[{"indexed":false,"internalType":"address","name":"protocol","type":"address"},{"indexed":false,"internalType":"string","name":"name","type":"string"}],"name":"ProtocolWhitelisted","type":"event"},{"anonymous":false,"inputs":[{"indexed":true,"internalType":"bytes32","name":"strategyId","type":"bytes32"},{"indexed":false,"internalType":"address","name":"protocol","type":"address"},{"indexed":false,"internalType":"address","name":"token","type":"address"}],"name":"StrategyCreated","type":"event"},{"anonymous":false,"inputs":[{"indexed":true,"internalType":"bytes32","name":"strategyId","type":"bytes32"},{"indexed":false,"internalType":"uint256","name":"amount","type":"uint256"},{"indexed":false,"internalType":"uint256","name":"expectedYield","type":"uint256"}],"name":"StrategyExecuted","type":"event"},{"anonymous":false,"inputs":[{"indexed":true,"internalType":"bytes32","name":"strategyId","type":"bytes32"},{"indexed":false,"internalType":"uint256","name":"newAllocation","type":"uint256"}],"name":"StrategyRebalanced","type":"event"},{"anonymous":false,"inputs":[{"indexed":false,"internalType":"address","name":"account","type":"address"}],"name":"Unpaused","type":"event"},{"anonymous":false,"inputs":[{"indexed":true,"internalType":"address","name":"user","type":"address"},{"indexed":false,"internalType":"address","name":"token","type":"address"},{"indexed":false,"internalType":"uint256","name":"amount","type":"uint256"}],"name":"UserDeposit","type":"event"},{"anonymous":false,"inputs":[{"indexed":true,"internalType":"address","name":"user","type":"address"},{"indexed":false,"internalType":"address","name":"token","type":"address"},{"indexed":false,"internalType":"uint256","name":"amount","type":"uint256"}],"name":"UserWithdraw","type":"event"},{"inputs":[],"name":"MAX_PROTOCOL_ALLOCATION","outputs":[{"internalType":"uint256","name":"","type":"uint256"}],"stateMutability":"view","type":"function"},{"inputs":[],"name":"MIN_YIELD_THRESHOLD","outputs":[{"internalType":"uint256","name":"","type":"uint256"}],"stateMutability":"view","type":"function"},{"inputs":[],"name":"REBALANCE_THRESHOLD","outputs":[{"internalType":"uint256","name":"","type":"uint256"}],"stateMutability":"view","type":"function"},{"inputs":[{"internalType":"uint256","name":"","type":"uint256"}],"name":"activeStrategies","outputs":[{"internalType":"bytes32","name":"","type":"bytes32"}],"stateMutability":"view","type":"function"},{"inputs":[{"internalType":"address","name":"token","type":"address"}],"name":"addSupportedToken","outputs":[],"stateMutability":"nonpayable","type":"function"},{"inputs":[{"internalType":"address","name":"aiAgent","type":"address"},{"internalType":"bool","name":"status","type":"bool"}],"name":"authorizeAI","outputs":[],"stateMutability":"nonpayable","type":"function"},{"inputs":[{"internalType":"address","name":"","type":"address"}],"name":"authorizedAI","outputs":[{"internalType":"bool","name":"","type":"bool"}],"stateMutability":"view","type":"function"},{"inputs":[{"internalType":"address","name":"protocol","type":"address"},{"internalType":"address","name":"token","type":"address"},{"internalType":"uint256","name":"riskScore","type":"uint256"}],"name":"createStrategy","outputs":[{"internalType":"bytes32","name":"","type":"bytes32"}],"stateMutability":"nonpayable","type":"function"},{"inputs":[{"internalType":"address","name":"token","type":"address"},{"internalType":"uint256","name":"amount","type":"uint256"}],"name":"deposit","outputs":[],"stateMutability":"nonpayable","type":"function"},{"inputs":[{"internalType":"bytes32","name":"strategyId","type":"bytes32"},{"internalType":"string","name":"reason","type":"string"}],"name":"emergencyExit","outputs":[],"stateMutability":"nonpayable","type":"function"},{"inputs":[{"internalType":"bytes32","name":"strategyId","type":"bytes32"},{"internalType":"uint256","name":"amount","type":"uint256"}],"name":"executeStrategy","outputs":[],"stateMutability":"nonpayable","type":"function"},{"inputs":[{"internalType":"address","name":"protocol","type":"address"}],"name":"getProtocolAllocation","outputs":[{"internalType":"uint256","name":"","type":"uint256"}],"stateMutability":"view","type":"function"},{"inputs":[{"internalType":"bytes32","name":"strategyId","type":"bytes32"}],"name":"getStrategy","outputs":[{"components":[{"internalType":"address","name":"protocol","type":"address"},{"internalType":"address","name":"token","type":"address"},{"internalType":"uint256","name":"allocatedAmount","type":"uint256"},{"internalType":"uint256","name":"currentYield","type":"uint256"},{"internalType":"uint256","name":"riskScore","type":"uint256"},{"internalType":"uint256","name":"lastRebalance","type":"uint256"},{"internalType":"bool","name":"isActive","type":"bool"}],"internalType":"struct YieldOptimizer.Strategy","name":"","type":"tuple"}],"stateMutability":"view","type":"function"},{"inputs":[{"internalType":"address","name":"user","type":"address"}],"name":"getUserPosition","outputs":[{"internalType":"uint256","name":"totalDeposited","type":"uint256"},{"internalType":"uint256","name":"currentValue","type":"uint256"},{"internalType":"uint256","name":"pendingRewards","type":"uint256"},{"internalType":"uint256","name":"lastUpdate","type":"uint256"}],"stateMutability":"view","type":"function"},{"inputs":[{"internalType":"address","name":"_owner","type":"address"},{"internalType":"uint256","name":"_performanceFee","type":"uint256"},{"internalType":"uint256","name":"_managementFee","type":"uint256"}],"name":"initialize","outputs":[],"stateMutability":"nonpayable","type":"function"},{"inputs":[{"internalType":"address","name":"token","type":"address"}],"name":"isTokenSupported","outputs":[{"internalType":"bool","name":"","type":"bool"}],"stateMutability":"view","type":"function"},{"inputs":[],"name":"managementFee","outputs":[{"internalType":"uint256","name":"","type":"uint256"}],"stateMutability":"view","type":"function"},{"inputs":[],"name":"owner","outputs":[{"internalType":"address","name":"","type":"address"}],"stateMutability":"view","type":"function"},{"inputs":[],"name":"pause","outputs":[],"stateMutability":"nonpayable","type":"function"},{"inputs":[],"name":"paused","outputs":[{"internalType":"bool","name":"","type":"bool"}],"stateMutability":"view","type":"function"},{"inputs":[],"name":"performanceFee","outputs":[{"internalType":"uint256","name":"","type":"uint256"}],"stateMutability":"view","type":"function"},{"inputs":[{"internalType":"bytes32","name":"strategyId","type":"bytes32"},{"internalType":"uint256","name":"newAllocation","type":"uint256"}],"name":"rebalanceStrategy","outputs":[],"stateMutability":"nonpayable","type":"function"},{"inputs":[{"internalType":"address","name":"token","type":"address"}],"name":"removeSupportedToken","outputs":[],"stateMutability":"nonpayable","type":"function"},{"inputs":[],"name":"renounceOwnership","outputs":[],"stateMutability":"nonpayable","type":"function"},{"inputs":[{"internalType":"bytes32","name":"","type":"bytes32"}],"name":"strategies","outputs":[{"internalType":"address","name":"protocol","type":"address"},{"internalType":"address","name":"token","type":"address"},{"internalType":"uint256","name":"allocatedAmount","type":"uint256"},{"internalType":"uint256","name":"currentYield","type":"uint256"},{"internalType":"uint256","name":"riskScore","type":"uint256"},{"internalType":"uint256","name":"lastRebalance","type":"uint256"},{"internalType":"bool","name":"isActive","type":"bool"}],"stateMutability":"view","type":"function"},{"inputs":[{"internalType":"uint256","name":"","type":"uint256"}],"name":"supportedTokens","outputs":[{"internalType":"address","name":"","type":"address"}],"stateMutability":"view","type":"function"},{"inputs":[],"name":"totalAssets","outputs":[{"internalType":"uint256","name":"","type":"uint256"}],"stateMutability":"view","type":"function"},{"inputs":[{"internalType":"address","name":"newOwner","type":"address"}],"name":"transferOwnership","outputs":[],"stateMutability":"nonpayable","type":"function"},{"inputs":[],"name":"unpause","outputs":[],"stateMutability":"nonpayable","type":"function"},{"inputs":[{"internalType":"bytes32","name":"strategyId","type":"bytes32"},{"internalType":"uint256","name":"newYield","type":"uint256"}],"name":"updateStrategyYield","outputs":[],"stateMutability":"nonpayable","type":"function"},{"inputs":[{"internalType":"address","name":"","type":"address"}],"name":"userPositions","outputs":[{"internalType":"uint256","name":"totalDeposited","type":"uint256"},{"internalType":"uint256","name":"currentValue","type":"uint256"},{"internalType":"uint256","name":"pendingRewards","type":"uint256"},{"internalType":"uint256","name":"lastUpdate","type":"uint256"}],"stateMutability":"view","type":"function"},{"inputs":[{"internalType":"address","name":"protocol","type":"address"},{"internalType":"string","name":"name","type":"string"},{"internalType":"uint256","name":"riskScore","type":"uint256"}],"name":"whitelistProtocol","outputs":[],"stateMutability":"nonpayable","type":"function"},{"inputs":[{"internalType":"address","name":"","type":"address"}],"name":"whitelistedProtocols","outputs":[{"internalType":"address","name":"protocolAddress","type":"address"},{"internalType":"string","name":"name","type":"string"},{"internalType":"uint256","name":"tvl","type":"uint256"},{"internalType":"uint256","name":"apy","type":"uint256"},{"internalType":"uint256","name":"riskScore","type":"uint256"},{"internalType":"bool","name":"isWhitelisted","type":"bool"}],"stateMutability":"view","type":"function"},{"inputs":[{"internalType":"address","name":"token","type":"address"},{"internalType":"uint256","name":"amount","type":"uint256"}],"name":"withdraw","outputs":[],"stateMutability":"nonpayable","type":"function"}],"evm":{"bytecode":{"linkReferences":{},"object":"608060405234801561001057600080fd5b50612266806100206000396000f3fe608060405234801561001057600080fd5b50600436106102065760003560e01c806384361c071161011a578063b4986922116100ad578063c85b967d1161007c578063c85b967d14610596578063e3908fdb1461059f578063ef68596a146105b2578063f2fde38b146105ba578063f3fef3a3146105cd57600080fd5b8063b498692214610554578063bb25f39414610567578063c29c945b1461057a578063c62556261461058357600080fd5b80639e32aaa3116100e95780639e32aaa314610502578063a6f7f5d614610525578063b20b24291461052e578063b47242981461054157600080fd5b806384361c07146104ac5780638456cb59146104d157806387788782146104d95780638da5cb5b146104e257600080fd5b80635b7c2dad1161019d578063715018a61161016c578063715018a61461045857806375151b631461046057806376319190146104735780637a1ac61e146104865780637e632ef21461049957600080fd5b80635b7c2dad1461038d5780635c975abb146103ea578063613cf4201461040e5780636d69fcaf1461044557600080fd5b80633f4ba83a116101d95780633f4ba83a146102c35780633ff34eb9146102cb57806347e7ef24146103675780634be8f2dd1461037a57600080fd5b806301e1d1141461020b57806328c84bbd146102275780633d7e12881461029b5780633f31cf3e146102b0575b600080fd5b61021460065481565b6040519081526020015b60405180910390f35b61023a610235366004611c50565b6105e0565b60405161021e919081516001600160a01b0390811682526020808401519091169082015260408083015190820152606080830151908201526080808301519082015260a0828101519082015260c09182015115159181019190915260e00190565b6102ae6102a9366004611c69565b6106a6565b005b6102ae6102be366004611c69565b6108c8565b6102ae610a46565b6103256102d9366004611c50565b60006020819052908152604090208054600182015460028301546003840154600485015460058601546006909601546001600160a01b0395861696959094169492939192909160ff1687565b604080516001600160a01b039889168152979096166020880152948601939093526060850191909152608084015260a0830152151560c082015260e00161021e565b6102ae610375366004611ca7565b610a58565b610214610388366004611cd1565b610bc1565b6103ca61039b366004611d0d565b6001600160a01b0316600090815260026020819052604090912080546001820154928201546003909201549093565b60408051948552602085019390935291830152606082015260800161021e565b6000805160206121f18339815191525460ff165b604051901515815260200161021e565b6103ca61041c366004611d0d565b600260208190526000918252604090912080546001820154928201546003909201549092919084565b6102ae610453366004611d0d565b610e48565b6102ae610f46565b6103fe61046e366004611d0d565b610f58565b6102ae610481366004611d0d565b610fc1565b6102ae610494366004611d2f565b61111b565b6102ae6104a7366004611dab565b611233565b6104bf6104ba366004611d0d565b611362565b60405161021e96959493929190611e05565b6102ae61142e565b61021460075481565b6104ea61143e565b6040516001600160a01b03909116815260200161021e565b6103fe610510366004611d0d565b60036020526000908152604090205460ff1681565b61021460085481565b61021461053c366004611c50565b61146c565b6102ae61054f366004611e87565b61148d565b6102ae610562366004611ed3565b611596565b610214610575366004611d0d565b611601565b610214610bb881565b6104ea610591366004611c50565b6116b4565b6102146101f481565b6102ae6105ad366004611c69565b6116de565b610214606481565b6102ae6105c8366004611d0d565b611779565b6102ae6105db366004611ca7565b6117b7565b6106346040518060e0016040528060006001600160a01b0316815260200160006001600160a01b03168152602001600081526020016000815260200160008152602001600081526020016000151581525090565b5060009081526020818152604091829020825160e08101845281546001600160a01b039081168252600183015416928101929092526002810154928201929092526003820154606082015260048201546080820152600582015460a082015260069091015460ff16151560c082015290565b3360009081526003602052604090205460ff16806106dc57506106c761143e565b6001600160a01b0316336001600160a01b0316145b6107015760405162461bcd60e51b81526004016106f890611f0f565b60405180910390fd5b600082815260208190526040902060060154829060ff166107345760405162461bcd60e51b81526004016106f890611f3a565b61073c6118a5565b6000838152602081905260409020826107975760405162461bcd60e51b815260206004820152601d60248201527f416d6f756e74206d7573742062652067726561746572207468616e203000000060448201526064016106f8565b805460009084906107b0906001600160a01b0316611601565b6107ba9190611f7d565b9050612710610bb86006546107cf9190611f90565b6107d99190611fa7565b8111156108325760405162461bcd60e51b815260206004820152602160248201527f457863656564732070726f746f636f6c20616c6c6f636174696f6e206c696d696044820152601d60fa1b60648201526084016106f8565b838260020160008282546108469190611f7d565b92505081905550836006600082825461085f9190611f7d565b9091555050600382015460405186917ffbe74b6a86d74ac8d81b6ae27a2754c5d8a0e61ab54e14d1696033eda36af91a916108a291888252602082015260400190565b60405180910390a250506108c3600160008051602061221183398151915255565b505050565b3360009081526003602052604090205460ff16806108fe57506108e961143e565b6001600160a01b0316336001600160a01b0316145b61091a5760405162461bcd60e51b81526004016106f890611f0f565b600082815260208190526040902060060154829060ff1661094d5760405162461bcd60e51b81526004016106f890611f3a565b60008381526020819052604081206002810154909190841161097e578382600201546109799190611fc9565b61098d565b600282015461098d9085611fc9565b90506101f48260020154826127106109a59190611f90565b6109af9190611fa7565b10156109fd5760405162461bcd60e51b815260206004820152601b60248201527f526562616c616e6365207468726573686f6c64206e6f74206d6574000000000060448201526064016106f8565b6002820184905542600583015560405184815285907f24a740cb40a6a84f0d89235743529de1cd5b25138c8611edda32e72582d2b9079060200160405180910390a25050505050565b610a4e6118f1565b610a56611923565b565b610a606118a5565b610a68611983565b60008111610ab85760405162461bcd60e51b815260206004820152601d60248201527f416d6f756e74206d7573742062652067726561746572207468616e203000000060448201526064016106f8565b610ac182610f58565b610b035760405162461bcd60e51b8152602060048201526013602482015272151bdad95b881b9bdd081cdd5c1c1bdc9d1959606a1b60448201526064016106f8565b610b186001600160a01b0383163330846119b4565b336000908152600260205260408120805490918391839190610b3b908490611f7d565b909155505042600382015560068054839190600090610b5b908490611f7d565b9091555050604080516001600160a01b03851681526020810184905233917f3bc57f469ad6d10d7723ea226cd22bd2b9e527def2b529f6ab44645a1668958291015b60405180910390a250610bbd600160008051602061221183398151915255565b5050565b3360009081526003602052604081205460ff1680610bf75750610be261143e565b6001600160a01b0316336001600160a01b0316145b610c135760405162461bcd60e51b81526004016106f890611f0f565b6001600160a01b03841660009081526001602052604090206005015460ff16610c7e5760405162461bcd60e51b815260206004820152601860248201527f50726f746f636f6c206e6f742077686974656c6973746564000000000000000060448201526064016106f8565b612710821115610cc55760405162461bcd60e51b8152602060048201526012602482015271496e76616c6964207269736b2073636f726560701b60448201526064016106f8565b6040516bffffffffffffffffffffffff19606086811b8216602084015285901b16603482015242604882015260009060680160408051601f19818403018152828252805160209182012060e0840183526001600160a01b03808a168552888116858401908152600086860181815260608801828152608089018c81524260a08b01908152600160c08c01818152898752998690528a86209b518c549089166001600160a01b0319918216178d5596518c8201805491909916971696909617909655915160028a0155516003890155516004808901919091559251600588015593516006909601805496151560ff1990971696909617909555805494850181559091527f8a35acfbc15ff81a39ae7d344fd709f28e8600b4aa8c65c6b64bfe7fe36bd19b9092018290555190915081907f25af3f78ec368bbdafaab7c1b422226abc418de785d2d0603a569fa6dc7f084190610e3890889088906001600160a01b0392831681529116602082015260400190565b60405180910390a2949350505050565b610e506118f1565b6001600160a01b038116610e9e5760405162461bcd60e51b8152602060048201526015602482015274496e76616c696420746f6b656e206164647265737360581b60448201526064016106f8565b610ea781610f58565b15610ef45760405162461bcd60e51b815260206004820152601760248201527f546f6b656e20616c726561647920737570706f7274656400000000000000000060448201526064016106f8565b600580546001810182556000919091527f036b6384b5eca791c62761152d0c79bb0604c104a5fb6f4eb0703f3154bb3db00180546001600160a01b0319166001600160a01b0392909216919091179055565b610f4e6118f1565b610a566000611a21565b6000805b600554811015610fb857826001600160a01b031660058281548110610f8357610f83611fdc565b6000918252602090912001546001600160a01b031603610fa65750600192915050565b80610fb081611ff2565b915050610f5c565b50600092915050565b610fc96118f1565b610fd281610f58565b6110145760405162461bcd60e51b8152602060048201526013602482015272151bdad95b881b9bdd081cdd5c1c1bdc9d1959606a1b60448201526064016106f8565b60005b600554811015610bbd57816001600160a01b03166005828154811061103e5761103e611fdc565b6000918252602090912001546001600160a01b031603611109576005805461106890600190611fc9565b8154811061107857611078611fdc565b600091825260209091200154600580546001600160a01b0390921691839081106110a4576110a4611fdc565b9060005260206000200160006101000a8154816001600160a01b0302191690836001600160a01b0316021790555060058054806110e3576110e361200b565b600082815260209020810160001990810180546001600160a01b03191690550190555050565b8061111381611ff2565b915050611017565b6000611125611a92565b805490915060ff600160401b820416159067ffffffffffffffff1660008115801561114d5750825b905060008267ffffffffffffffff16600114801561116a5750303b155b905081158015611178575080155b156111965760405163f92ee8a960e01b815260040160405180910390fd5b845467ffffffffffffffff1916600117855583156111c057845460ff60401b1916600160401b1785555b6111c988611abd565b6111d1611ace565b6111d9611ade565b60078790556008869055831561122957845460ff60401b19168555604051600181527fc7f505b2f371ae2175ee4913f4499e1f2633a7b5936321eed1cdaeb6115181d29060200160405180910390a15b5050505050505050565b61123b6118f1565b6040518060c00160405280856001600160a01b0316815260200184848080601f01602080910402602001604051908101604052809392919081815260200183838082843760009201829052509385525050506020808301829052604080840183905260608401869052600160809094018490526001600160a01b0389811684528483529220845181546001600160a01b031916931692909217825583015190918201906112e890826120bf565b506040828101516002830155606083015160038301556080830151600483015560a0909201516005909101805460ff1916911515919091179055517f73bdf89e59edfb29506faba5617b5a05784f35f90f1652bdc33be18659eebfaf90611354908690869086906121a8565b60405180910390a150505050565b6001602081905260009182526040909120805491810180546001600160a01b039093169261138f90612037565b80601f01602080910402602001604051908101604052809291908181526020018280546113bb90612037565b80156114085780601f106113dd57610100808354040283529160200191611408565b820191906000526020600020905b8154815290600101906020018083116113eb57829003601f168201915b505050506002830154600384015460048501546005909501549394919390925060ff1686565b6114366118f1565b610a56611ae6565b7f9016d09d72d40fdae2fd8ceac6b6234c7706214fd39c1cd1e609a0528c199300546001600160a01b031690565b6004818154811061147c57600080fd5b600091825260209091200154905081565b3360009081526003602052604090205460ff16806114c357506114ae61143e565b6001600160a01b0316336001600160a01b0316145b6114df5760405162461bcd60e51b81526004016106f890611f0f565b600083815260208190526040902060060154839060ff166115125760405162461bcd60e51b81526004016106f890611f3a565b6000848152602081905260408120600281018054908390556006808301805460ff1916905580549293919283929061154b908490611fc9565b92505081905550857fcfd157f1a60ebc60b8ae73eda330d482bcc8c97544a55ad24d680a8385e8e2ef828787604051611586939291906121d6565b60405180910390a2505050505050565b61159e6118f1565b6001600160a01b038216600081815260036020908152604091829020805460ff19168515159081179091558251938452908301527f98a76e3487b9abba61e3d05a76bd19b431e14ed2126711f32f5b22082b0e77ef910160405180910390a15050565b600080805b6004548110156116ad57836001600160a01b03166000806004848154811061163057611630611fdc565b600091825260208083209091015483528201929092526040019020546001600160a01b03160361169b576000806004838154811061167057611670611fdc565b9060005260206000200154815260200190815260200160002060020154826116989190611f7d565b91505b806116a581611ff2565b915050611606565b5092915050565b600581815481106116c457600080fd5b6000918252602090912001546001600160a01b0316905081565b3360009081526003602052604090205460ff168061171457506116ff61143e565b6001600160a01b0316336001600160a01b0316145b6117305760405162461bcd60e51b81526004016106f890611f0f565b600082815260208190526040902060060154829060ff166117635760405162461bcd60e51b81526004016106f890611f3a565b5060009182526020829052604090912060030155565b6117816118f1565b6001600160a01b0381166117ab57604051631e4fbdf760e01b8152600060048201526024016106f8565b6117b481611a21565b50565b6117bf6118a5565b33600090815260026020526040902080548211156118165760405162461bcd60e51b8152602060048201526014602482015273496e73756666696369656e742062616c616e636560601b60448201526064016106f8565b8181600001600082825461182a9190611fc9565b90915550504260038201556006805483919060009061184a908490611fc9565b9091555061186490506001600160a01b0384163384611b2f565b604080516001600160a01b03851681526020810184905233917f6985a6dd52aeb8194df40b7af2f362f362440affc39c1314649abc28dbf6b6289101610b9d565b6000805160206122118339815191528054600119016118d757604051633ee5aeb560e01b815260040160405180910390fd5b60029055565b600160008051602061221183398151915255565b336118fa61143e565b6001600160a01b031614610a565760405163118cdaa760e01b81523360048201526024016106f8565b61192b611b60565b6000805160206121f1833981519152805460ff191681557f5db9ee0a495bf2e6ff9c91a7834c1ba4fdd244a5e8aa4e537bd38aeae4b073aa335b6040516001600160a01b03909116815260200160405180910390a150565b6000805160206121f18339815191525460ff1615610a565760405163d93c066560e01b815260040160405180910390fd5b6040516001600160a01b038481166024830152838116604483015260648201839052611a1b9186918216906323b872dd906084015b604051602081830303815290604052915060e01b6020820180516001600160e01b038381831617835250505050611b90565b50505050565b7f9016d09d72d40fdae2fd8ceac6b6234c7706214fd39c1cd1e609a0528c19930080546001600160a01b031981166001600160a01b03848116918217845560405192169182907f8be0079c531659141344cd1fd0a4f28419497f9722a3daafe3b4186f6b6457e090600090a3505050565b6000807ff0c57e16840df040f15088dc2f81fe391c3923bec73e23a9662efc9c229c6a005b92915050565b611ac5611c01565b6117b481611c26565b611ad6611c01565b610a56611c2e565b610a56611c01565b611aee611983565b6000805160206121f1833981519152805460ff191660011781557f62e78cea01bee320cd4e420270b5ea74000d11b0c9f74754ebdbfc544b05a25833611965565b6040516001600160a01b038381166024830152604482018390526108c391859182169063a9059cbb906064016119e9565b6000805160206121f18339815191525460ff16610a5657604051638dfc202b60e01b815260040160405180910390fd5b600080602060008451602086016000885af180611bb3576040513d6000823e3d81fd5b50506000513d91508115611bcb578060011415611bd8565b6001600160a01b0384163b155b15611a1b57604051635274afe760e01b81526001600160a01b03851660048201526024016106f8565b611c09611c36565b610a5657604051631afcd79f60e31b815260040160405180910390fd5b611781611c01565b6118dd611c01565b6000611c40611a92565b54600160401b900460ff16919050565b600060208284031215611c6257600080fd5b5035919050565b60008060408385031215611c7c57600080fd5b50508035926020909101359150565b80356001600160a01b0381168114611ca257600080fd5b919050565b60008060408385031215611cba57600080fd5b611cc383611c8b565b946020939093013593505050565b600080600060608486031215611ce657600080fd5b611cef84611c8b565b9250611cfd60208501611c8b565b9150604084013590509250925092565b600060208284031215611d1f57600080fd5b611d2882611c8b565b9392505050565b600080600060608486031215611d4457600080fd5b611d4d84611c8b565b95602085013595506040909401359392505050565b60008083601f840112611d7457600080fd5b50813567ffffffffffffffff811115611d8c57600080fd5b602083019150836020828501011115611da457600080fd5b9250929050565b60008060008060608587031215611dc157600080fd5b611dca85611c8b565b9350602085013567ffffffffffffffff811115611de657600080fd5b611df287828801611d62565b9598909750949560400135949350505050565b60018060a01b03871681526000602060c08184015287518060c085015260005b81811015611e415789810183015185820160e001528201611e25565b50600060e0828601015260e0601f19601f83011685010192505050856040830152846060830152836080830152611e7c60a083018415159052565b979650505050505050565b600080600060408486031215611e9c57600080fd5b83359250602084013567ffffffffffffffff811115611eba57600080fd5b611ec686828701611d62565b9497909650939450505050565b60008060408385031215611ee657600080fd5b611eef83611c8b565b915060208301358015158114611f0457600080fd5b809150509250929050565b6020808252601190820152704e6f7420617574686f72697a656420414960781b604082015260600190565b6020808252601390820152725374726174656779206e6f742061637469766560681b604082015260600190565b634e487b7160e01b600052601160045260246000fd5b80820180821115611ab757611ab7611f67565b8082028115828204841417611ab757611ab7611f67565b600082611fc457634e487b7160e01b600052601260045260246000fd5b500490565b81810381811115611ab757611ab7611f67565b634e487b7160e01b600052603260045260246000fd5b60006001820161200457612004611f67565b5060010190565b634e487b7160e01b600052603160045260246000fd5b634e487b7160e01b600052604160045260246000fd5b600181811c9082168061204b57607f821691505b60208210810361206b57634e487b7160e01b600052602260045260246000fd5b50919050565b601f8211156108c357600081815260208120601f850160051c810160208610156120985750805b601f850160051c820191505b818110156120b7578281556001016120a4565b505050505050565b815167ffffffffffffffff8111156120d9576120d9612021565b6120ed816120e78454612037565b84612071565b602080601f831160018114612122576000841561210a5750858301515b600019600386901b1c1916600185901b1785556120b7565b600085815260208120601f198616915b8281101561215157888601518255948401946001909101908401612132565b508582101561216f5787850151600019600388901b60f8161c191681555b5050505050600190811b01905550565b81835281816020850137506000828201602090810191909152601f909101601f19169091010190565b6001600160a01b03841681526040602082018190526000906121cd908301848661217f565b95945050505050565b8381526040602082015260006121cd60408301848661217f56fecd5ed15c6e187e77e9aee88184c21f4f2182ab5827cb3b7e07fbedcd63f033009b779b17422d0df92223018b32b4d1fa46e071723d6817e2486d003becc55f00a2646970667358221220497eadaf46036067fb56879609dac5cb4c9de7060454df81a263d21a4b9683b664736f6c63430008140033","opcodes":"PUSH1 0x80 PUSH1 0x40 MSTORE CALLVALUE DUP1 ISZERO PUSH2 0x10 JUMPI PUSH1 0x0 DUP1 REVERT JUMPDEST POP PUSH2 0x2266 DUP1 PUSH2 0x20 PUSH1 0x0 CODECOPY PUSH1 0x0 RETURN INVALID PUSH1 0x80 PUSH1 0x40 MSTORE CALLVALUE DUP1 ISZERO PUSH2 0x10 JUMPI PUSH1 0x0 DUP1 REVERT JUMPDEST POP PUSH1 0x4 CALLDATASIZE LT PUSH2 0x206 JUMPI PUSH1 0x0 CALLDATALOAD PUSH1 0xE0 SHR DUP1 PUSH4 0x84361C07 GT PUSH2 0x11A JUMPI DUP1 PUSH4 0xB4986922 GT PUSH2 0xAD JUMPI DUP1 PUSH4 0xC85B967D GT PUSH2 0x7C JUMPI DUP1 PUSH4 0xC85B967D EQ PUSH2 0x596 JUMPI DUP1 PUSH4 0xE3908FDB EQ PUSH2 0x59F JUMPI DUP1 PUSH4 0xEF68596A EQ PUSH2 0x5B2 JUMPI DUP1 PUSH4 0xF2FDE38B EQ PUSH2 0x5BA JUMPI DUP1 PUSH4 0xF3FEF3A3 EQ PUSH2 0x5CD JUMPI PUSH1 0x0 DUP1 REVERT JUMPDEST DUP1 PUSH4 0xB4986922 EQ PUSH2 0x554 JUMPI DUP1 PUSH4 0xBB25F394 EQ PUSH2 0x567 JUMPI DUP1 PUSH4 0xC29C945B EQ PUSH2 0x57A JUMPI DUP1 PUSH4 0xC6255626 EQ PUSH2 0x583 JUMPI PUSH1 0x0 DUP1 REVERT JUMPDEST DUP1 PUSH4 0x9E32AAA3 GT PUSH2 0xE9 JUMPI DUP1 PUSH4 0x9E32AAA3 EQ PUSH2 0x502 JUMPI DUP1 PUSH4 0xA6F7F5D6 EQ PUSH2 0x525 JUMPI DUP1 PUSH4 0xB20B2429 EQ PUSH2 0x52E JUMPI DUP1 PUSH4 0xB4724298 EQ PUSH2 0x541 JUMPI PUSH1 0x0 DUP1 REVERT JUMPDEST DUP1 PUSH4 0x84361C07 EQ PUSH2 0x4AC JUMPI DUP1 PUSH4 0x8456CB59 EQ PUSH2 0x4D1 JUMPI DUP1 PUSH4 0x87788782 EQ PUSH2 0x4D9 JUMPI DUP1 PUSH4 0x8DA5CB5B EQ PUSH2 0x4E2 JUMPI PUSH1 0x0 DUP1 REVERT JUMPDEST DUP1 PUSH4 0x5B7C2DAD GT PUSH2 0x19D JUMPI DUP1 PUSH4 0x715018A6 GT PUSH2 0x16C JUMPI DUP1 PUSH4 0x715018A6 EQ PUSH2 0x458 JUMPI DUP1 PUSH4 0x75151B63 EQ PUSH2 0x460 JUMPI DUP1 PUSH4 0x76319190 EQ PUSH2 0x473 JUMPI DUP1 PUSH4 0x7A1AC61E EQ PUSH2 0x486 JUMPI DUP1 PUSH4 0x7E632EF2 EQ PUSH2 0x499 JUMPI PUSH1 0x0 DUP1 REVERT JUMPDEST DUP1 PUSH4 0x5B7C2DAD EQ PUSH2 0x38D JUMPI DUP1 PUSH4 0x5C975ABB EQ PUSH2 0x3EA JUMPI DUP1 PUSH4 0x613CF420 EQ PUSH2 0x40E JUMPI DUP1 PUSH4 0x6D69FCAF EQ PUSH2 0x445 JUMPI PUSH1 0x0 DUP1 REVERT JUMPDEST DUP1 PUSH4 0x3F4BA83A GT PUSH2 0x1D9 JUMPI DUP1 PUSH4 0x3F4BA83A EQ PUSH2 0x2C3 JUMPI DUP1 PUSH4 0x3FF34EB9 EQ PUSH2 0x2CB JUMPI DUP1 PUSH4 0x47E7EF24 EQ PUSH2 0x367 JUMPI DUP1 PUSH4 0x4BE8F2DD EQ PUSH2 0x37A JUMPI PUSH1 0x0 DUP1 REVERT JUMPDEST DUP1 PUSH4 0x1E1D114 EQ PUSH2 0x20B JUMPI DUP1 PUSH4 0x28C84BBD EQ PUSH2 0x227 JUMPI DUP1 PUSH4 0x3D7E1288 EQ PUSH2 0x29B JUMPI DUP1 PUSH4 0x3F31CF3E EQ PUSH2 0x2B0 JUMPI JUMPDEST PUSH1 0x0 DUP1 REVERT JUMPDEST PUSH2 0x214 PUSH1 0x6 SLOAD DUP2 JUMP JUMPDEST PUSH1 0x40 MLOAD SWAP1 DUP2 MSTORE PUSH1 0x20 ADD JUMPDEST PUSH1 0x40 MLOAD DUP1 SWAP2 SUB SWAP1 RETURN JUMPDEST PUSH2 0x23A PUSH2 0x235 CALLDATASIZE PUSH1 0x4 PUSH2 0x1C50 JUMP JUMPDEST PUSH2 0x5E0 JUMP JUMPDEST PUSH1 0x40 MLOAD PUSH2 0x21E SWAP2 SWAP1 DUP2 MLOAD PUSH1 0x1 PUSH1 0x1 PUSH1 0xA0 SHL SUB SWAP1 DUP2 AND DUP3 MSTORE PUSH1 0x20 DUP1 DUP5 ADD MLOAD SWAP1 SWAP2 AND SWAP1 DUP3 ADD MSTORE PUSH1 0x40 DUP1 DUP4 ADD MLOAD SWAP1 DUP3 ADD MSTORE PUSH1 0x60 DUP1 DUP4 ADD MLOAD SWAP1 DUP3 ADD MSTORE PUSH1 0x80 DUP1 DUP4 ADD MLOAD SWAP1 DUP3 ADD MSTORE PUSH1 0xA0 DUP3 DUP2 ADD MLOAD SWAP1 DUP3 ADD MSTORE PUSH1 0xC0 SWAP2 DUP3 ADD MLOAD ISZERO ISZERO SWAP2 DUP2 ADD SWAP2 SWAP1 SWAP2 MSTORE PUSH1 0xE0 ADD SWAP1 JUMP JUMPDEST PUSH2 0x2AE PUSH2 0x2A9 CALLDATASIZE PUSH1 0x4 PUSH2 0x1C69 JUMP JUMPDEST PUSH2 0x6A6 JUMP JUMPDEST STOP JUMPDEST PUSH2 0x2AE PUSH2 0x2BE CALLDATASIZE PUSH1 0x4 PUSH2 0x1C69 JUMP JUMPDEST PUSH2 0x8C8 JUMP JUMPDEST PUSH2 0x2AE PUSH2 0xA46 JUMP JUMPDEST PUSH2 0x325 PUSH2 0x2D9 CALLDATASIZE PUSH1 0x4 PUSH2 0x1C50 JUMP JUMPDEST PUSH1 0x0 PUSH1 0x20 DUP2 SWAP1 MSTORE SWAP1 DUP2 MSTORE PUSH1 0x40 SWAP1 KECCAK256 DUP1 SLOAD PUSH1 0x1 DUP3 ADD SLOAD PUSH1 0x2 DUP4 ADD SLOAD PUSH1 0x3 DUP5 ADD SLOAD PUSH1 0x4 DUP6 ADD SLOAD PUSH1 0x5 DUP7 ADD SLOAD PUSH1 0x6 SWAP1 SWAP7 ADD SLOAD PUSH1 0x1 PUSH1 0x1 PUSH1 0xA0 SHL SUB SWAP6 DUP7 AND SWAP7 SWAP6 SWAP1 SWAP5 AND SWAP5 SWAP3 SWAP4 SWAP2 SWAP3 SWAP1 SWAP2 PUSH1 0xFF AND DUP8 JUMP JUMPDEST PUSH1 0x40 DUP1 MLOAD PUSH1 0x1 PUSH1 0x1 PUSH1 0xA0 SHL SUB SWAP9 DUP10 AND DUP2 MSTORE SWAP8 SWAP1 SWAP7 AND PUSH1 0x20 DUP9 ADD MSTORE SWAP5 DUP7 ADD SWAP4 SWAP1 SWAP4 MSTORE PUSH1 0x60 DUP6 ADD SWAP2 SWAP1 SWAP2 MSTORE PUSH1 0x80 DUP5 ADD MSTORE PUSH1 0xA0 DUP4 ADD MSTORE ISZERO ISZERO PUSH1 0xC0 DUP3 ADD MSTORE PUSH1 0xE0 ADD PUSH2 0x21E JUMP JUMPDEST PUSH2 0x2AE PUSH2 0x375 CALLDATASIZE PUSH1 0x4 PUSH2 0x1CA7 JUMP JUMPDEST PUSH2 0xA58 JUMP JUMPDEST PUSH2 0x214 PUSH2 0x388 CALLDATASIZE PUSH1 0x4 PUSH2 0x1CD1 JUMP JUMPDEST PUSH2 0xBC1 JUMP JUMPDEST PUSH2 0x3CA PUSH2 0x39B CALLDATASIZE PUSH1 0x4 PUSH2 0x1D0D JUMP JUMPDEST PUSH1 0x1 PUSH1 0x1 PUSH1 0xA0 SHL SUB AND PUSH1 0x0 SWAP1 DUP2 MSTORE PUSH1 0x2 PUSH1 0x20 DUP2 SWAP1 MSTORE PUSH1 0x40 SWAP1 SWAP2 KECCAK256 DUP1 SLOAD PUSH1 0x1 DUP3 ADD SLOAD SWAP3 DUP3 ADD SLOAD PUSH1 0x3 SWAP1 SWAP3 ADD SLOAD SWAP1 SWAP4 JUMP JUMPDEST PUSH1 0x40 DUP1 MLOAD SWAP5 DUP6 MSTORE PUSH1 0x20 DUP6 ADD SWAP4 SWAP1 SWAP4 MSTORE SWAP2 DUP4 ADD MSTORE PUSH1 0x60 DUP3 ADD MSTORE PUSH1 0x80 ADD PUSH2 0x21E JUMP JUMPDEST PUSH1 0x0 DUP1 MLOAD PUSH1 0x20 PUSH2 0x21F1 DUP4 CODECOPY DUP2 MLOAD SWAP2 MSTORE SLOAD PUSH1 0xFF AND JUMPDEST PUSH1 0x40 MLOAD SWAP1 ISZERO ISZERO DUP2 MSTORE PUSH1 0x20 ADD PUSH2 0x21E JUMP JUMPDEST PUSH2 0x3CA PUSH2 0x41C CALLDATASIZE PUSH1 0x4 PUSH2 0x1D0D JUMP JUMPDEST PUSH1 0x2 PUSH1 0x20 DUP2 SWAP1 MSTORE PUSH1 0x0 SWAP2 DUP3 MSTORE PUSH1 0x40 SWAP1 SWAP2 KECCAK256 DUP1 SLOAD PUSH1 0x1 DUP3 ADD SLOAD SWAP3 DUP3 ADD SLOAD PUSH1 0x3 SWAP1 SWAP3 ADD SLOAD SWAP1 SWAP3 SWAP2 SWAP1 DUP5 JUMP JUMPDEST PUSH2 0x2AE PUSH2 0x453 CALLDATASIZE PUSH1 0x4 PUSH2 0x1D0D JUMP JUMPDEST PUSH2 0xE48 JUMP JUMPDEST PUSH2 0x2AE PUSH2 0xF46 JUMP JUMPDEST PUSH2 0x3FE PUSH2 0x46E CALLDATASIZE PUSH1 0x4 PUSH2 0x1D0D JUMP JUMPDEST PUSH2 0xF58 JUMP JUMPDEST PUSH2 0x2AE PUSH2 0x481 CALLDATASIZE PUSH1 0x4 PUSH2 0x1D0D JUMP JUMPDEST PUSH2 0xFC1 JUMP JUMPDEST PUSH2 0x2AE PUSH2 0x494 CALLDATASIZE PUSH1 0x4 PUSH2 0x1D2F JUMP JUMPDEST PUSH2 0x111B JUMP JUMPDEST PUSH2 0x2AE PUSH2 0x4A7 CALLDATASIZE PUSH1 0x4 PUSH2 0x1DAB JUMP JUMPDEST PUSH2 0x1233 JUMP JUMPDEST PUSH2 0x4BF PUSH2 0x4BA CALLDATASIZE PUSH1 0x4 PUSH2 0x1D0D JUMP JUMPDEST PUSH2 0x1362 JUMP JUMPDEST PUSH1 0x40 MLOAD PUSH2 0x21E SWAP7 SWAP6 SWAP5 SWAP4 SWAP3 SWAP2 SWAP1 PUSH2 0x1E05 JUMP JUMPDEST PUSH2 0x2AE PUSH2 0x142E JUMP JUMPDEST PUSH2 0x214 PUSH1 0x7 SLOAD DUP2 JUMP JUMPDEST PUSH2 0x4EA PUSH2 0x143E JUMP JUMPDEST PUSH1 0x40 MLOAD PUSH1 0x1 PUSH1 0x1 PUSH1 0xA0 SHL SUB SWAP1 SWAP2 AND DUP2 MSTORE PUSH1 0x20 ADD PUSH2 0x21E JUMP JUMPDEST PUSH2 0x3FE PUSH2 0x510 CALLDATASIZE PUSH1 0x4 PUSH2 0x1D0D JUMP JUMPDEST PUSH1 0x3 PUSH1 0x20 MSTORE PUSH1 0x0 SWAP1 DUP2 MSTORE PUSH1 0x40 SWAP1 KECCAK256 SLOAD PUSH1 0xFF AND DUP2 JUMP JUMPDEST PUSH2 0x214 PUSH1 0x8 SLOAD DUP2 JUMP JUMPDEST PUSH2 0x214 PUSH2 0x53C CALLDATASIZE PUSH1 0x4 PUSH2 0x1C50 JUMP JUMPDEST PUSH2 0x146C JUMP JUMPDEST PUSH2 0x2AE PUSH2 0x54F CALLDATASIZE PUSH1 0x4 PUSH2 0x1E87 JUMP JUMPDEST PUSH2 0x148D JUMP JUMPDEST PUSH2 0x2AE PUSH2 0x562 CALLDATASIZE PUSH1 0x4 PUSH2 0x1ED3 JUMP JUMPDEST PUSH2 0x1596 JUMP JUMPDEST PUSH2 0x214 PUSH2 0x575 CALLDATASIZE PUSH1 0x4 PUSH2 0x1D0D JUMP JUMPDEST PUSH2 0x1601 JUMP JUMPDEST PUSH2 0x214 PUSH2 0xBB8 DUP2 JUMP JUMPDEST PUSH2 0x4EA PUSH2 0x591 CALLDATASIZE PUSH1 0x4 PUSH2 0x1C50 JUMP JUMPDEST PUSH2 0x16B4 JUMP JUMPDEST PUSH2 0x214 PUSH2 0x1F4 DUP2 JUMP JUMPDEST PUSH2 0x2AE PUSH2 0x5AD CALLDATASIZE PUSH1 0x4 PUSH2 0x1C69 JUMP JUMPDEST PUSH2 0x16DE JUMP JUMPDEST PUSH2 0x214 PUSH1 0x64 DUP2 JUMP JUMPDEST PUSH2 0x2AE PUSH2 0x5C8 CALLDATASIZE PUSH1 0x4 PUSH2 0x1D0D JUMP JUMPDEST PUSH2 0x1779 JUMP JUMPDEST PUSH2 0x2AE PUSH2 0x5DB CALLDATASIZE PUSH1 0x4 PUSH2 0x1CA7 JUMP JUMPDEST PUSH2 0x17B7 JUMP JUMPDEST PUSH2 0x634 PUSH1 0x40 MLOAD DUP1 PUSH1 0xE0 ADD PUSH1 0x40 MSTORE DUP1 PUSH1 0x0 PUSH1 0x1 PUSH1 0x1 PUSH1 0xA0 SHL SUB AND DUP2 MSTORE PUSH1 0x20 ADD PUSH1 0x0 PUSH1 0x1 PUSH1 0x1 PUSH1 0xA0 SHL SUB AND DUP2 MSTORE PUSH1 0x20 ADD PUSH1 0x0 DUP2 MSTORE PUSH1 0x20 ADD PUSH1 0x0 DUP2 MSTORE PUSH1 0x20 ADD PUSH1 0x0 DUP2 MSTORE PUSH1 0x20 ADD PUSH1 0x0 DUP2 MSTORE PUSH1 0x20 ADD PUSH1 0x0 ISZERO ISZERO DUP2 MSTORE POP SWAP1 JUMP JUMPDEST POP PUSH1 0x0 SWAP1 DUP2 MSTORE PUSH1 0x20 DUP2 DUP2 MSTORE PUSH1 0x40 SWAP2 DUP3 SWAP1 KECCAK256 DUP3 MLOAD PUSH1 0xE0 DUP2 ADD DUP5 MSTORE DUP2 SLOAD PUSH1 0x1 PUSH1 0x1 PUSH1 0xA0 SHL SUB SWAP1 DUP2 AND DUP3 MSTORE PUSH1 0x1 DUP4 ADD SLOAD AND SWAP3 DUP2 ADD SWAP3 SWAP1 SWAP3 MSTORE PUSH1 0x2 DUP2 ADD SLOAD SWAP3 DUP3 ADD SWAP3 SWAP1 SWAP3 MSTORE PUSH1 0x3 DUP3 ADD SLOAD PUSH1 0x60 DUP3 ADD MSTORE PUSH1 0x4 DUP3 ADD SLOAD PUSH1 0x80 DUP3 ADD MSTORE PUSH1 0x5 DUP3 ADD SLOAD PUSH1 0xA0 DUP3 ADD MSTORE PUSH1 0x6 SWAP1 SWAP2 ADD SLOAD PUSH1 0xFF AND ISZERO ISZERO PUSH1 0xC0 DUP3 ADD MSTORE SWAP1 JUMP JUMPDEST CALLER PUSH1 0x0 SWAP1 DUP2 MSTORE PUSH1 0x3 PUSH1 0x20 MSTORE PUSH1 0x40 SWAP1 KECCAK256 SLOAD PUSH1 0xFF AND DUP1 PUSH2 0x6DC JUMPI POP PUSH2 0x6C7 PUSH2 0x143E JUMP JUMPDEST PUSH1 0x1 PUSH1 0x1 PUSH1 0xA0 SHL SUB AND CALLER PUSH1 0x1 PUSH1 0x1 PUSH1 0xA0 SHL SUB AND EQ JUMPDEST PUSH2 0x701 JUMPI PUSH1 0x40 MLOAD PUSH3 0x461BCD PUSH1 0xE5 SHL DUP2 MSTORE PUSH1 0x4 ADD PUSH2 0x6F8 SWAP1 PUSH2 0x1F0F JUMP JUMPDEST PUSH1 0x40 MLOAD DUP1 SWAP2 SUB SWAP1 REVERT JUMPDEST PUSH1 0x0 DUP3 DUP2 MSTORE PUSH1 0x20 DUP2 SWAP1 MSTORE PUSH1 0x40 SWAP1 KECCAK256 PUSH1 0x6 ADD SLOAD DUP3 SWAP1 PUSH1 0xFF AND PUSH2 0x734 JUMPI PUSH1 0x40 MLOAD PUSH3 0x461BCD PUSH1 0xE5 SHL DUP2 MSTORE PUSH1 0x4 ADD PUSH2 0x6F8 SWAP1 PUSH2 0x1F3A JUMP JUMPDEST PUSH2 0x73C PUSH2 0x18A5 JUMP JUMPDEST PUSH1 0x0 DUP4 DUP2 MSTORE PUSH1 0x20 DUP2 SWAP1 MSTORE PUSH1 0x40 SWAP1 KECCAK256 DUP3 PUSH2 0x797 JUMPI PUSH1 0x40 MLOAD PUSH3 0x461BCD PUSH1 0xE5 SHL DUP2 MSTORE PUSH1 0x20 PUSH1 0x4 DUP3 ADD MSTORE PUSH1 0x1D PUSH1 0x24 DUP3 ADD MSTORE PUSH32 0x416D6F756E74206D7573742062652067726561746572207468616E2030000000 PUSH1 0x44 DUP3 ADD MSTORE PUSH1 0x64 ADD PUSH2 0x6F8 JUMP JUMPDEST DUP1 SLOAD PUSH1 0x0 SWAP1 DUP5 SWAP1 PUSH2 0x7B0 SWAP1 PUSH1 0x1 PUSH1 0x1 PUSH1 0xA0 SHL SUB AND PUSH2 0x1601 JUMP JUMPDEST PUSH2 0x7BA SWAP2 SWAP1 PUSH2 0x1F7D JUMP JUMPDEST SWAP1 POP PUSH2 0x2710 PUSH2 0xBB8 PUSH1 0x6 SLOAD PUSH2 0x7CF SWAP2 SWAP1 PUSH2 0x1F90 JUMP JUMPDEST PUSH2 0x7D9 SWAP2 SWAP1 PUSH2 0x1FA7 JUMP JUMPDEST DUP2 GT ISZERO PUSH2 0x832 JUMPI PUSH1 0x40 MLOAD PUSH3 0x461BCD PUSH1 0xE5 SHL DUP2 MSTORE PUSH1 0x20 PUSH1 0x4 DUP3 ADD MSTORE PUSH1 0x21 PUSH1 0x24 DUP3 ADD MSTORE PUSH32 0x457863656564732070726F746F636F6C20616C6C6F636174696F6E206C696D69 PUSH1 0x44 DUP3 ADD MSTORE PUSH1 0x1D PUSH1 0xFA SHL PUSH1 0x64 DUP3 ADD MSTORE PUSH1 0x84 ADD PUSH2 0x6F8 JUMP JUMPDEST DUP4 DUP3 PUSH1 0x2 ADD PUSH1 0x0 DUP3 DUP3 SLOAD PUSH2 0x846 SWAP2 SWAP1 PUSH2 0x1F7D JUMP JUMPDEST SWAP3 POP POP DUP2 SWAP1 SSTORE POP DUP4 PUSH1 0x6 PUSH1 0x0 DUP3 DUP3 SLOAD PUSH2 0x85F SWAP2 SWAP1 PUSH2 0x1F7D JUMP JUMPDEST SWAP1 SWAP2 SSTORE POP POP PUSH1 0x3 DUP3 ADD SLOAD PUSH1 0x40 MLOAD DUP7 SWAP2 PUSH32 0xFBE74B6A86D74AC8D81B6AE27A2754C5D8A0E61AB54E14D1696033EDA36AF91A SWAP2 PUSH2 0x8A2 SWAP2 DUP9 DUP3 MSTORE PUSH1 0x20 DUP3 ADD MSTORE PUSH1 0x40 ADD SWAP1 JUMP JUMPDEST PUSH1 0x40 MLOAD DUP1 SWAP2 SUB SWAP1 LOG2 POP POP PUSH2 0x8C3 PUSH1 0x1 PUSH1 0x0 DUP1 MLOAD PUSH1 0x20 PUSH2 0x2211 DUP4 CODECOPY DUP2 MLOAD SWAP2 MSTORE SSTORE JUMP JUMPDEST POP POP POP JUMP JUMPDEST CALLER PUSH1 0x0 SWAP1 DUP2 MSTORE PUSH1 0x3 PUSH1 0x20 MSTORE PUSH1 0x40 SWAP1 KECCAK256 SLOAD PUSH1 0xFF AND DUP1 PUSH2 0x8FE JUMPI POP PUSH2 0x8E9 PUSH2 0x143E JUMP JUMPDEST PUSH1 0x1 PUSH1 0x1 PUSH1 0xA0 SHL SUB AND CALLER PUSH1 0x1 PUSH1 0x1 PUSH1 0xA0 SHL SUB AND EQ JUMPDEST PUSH2 0x91A JUMPI PUSH1 0x40 MLOAD PUSH3 0x461BCD PUSH1 0xE5 SHL DUP2 MSTORE PUSH1 0x4 ADD PUSH2 0x6F8 SWAP1 PUSH2 0x1F0F JUMP JUMPDEST PUSH1 0x0 DUP3 DUP2 MSTORE PUSH1 0x20 DUP2 SWAP1 MSTORE PUSH1 0x40 SWAP1 KECCAK256 PUSH1 0x6 ADD SLOAD DUP3 SWAP1 PUSH1 0xFF AND PUSH2 0x94D JUMPI PUSH1 0x40 MLOAD PUSH3 0x461BCD PUSH1 0xE5 SHL DUP2 MSTORE PUSH1 0x4 ADD PUSH2 0x6F8 SWAP1 PUSH2 0x1F3A JUMP JUMPDEST PUSH1 0x0 DUP4 DUP2 MSTORE PUSH1 0x20 DUP2 SWAP1 MSTORE PUSH1 0x40 DUP2 KECCAK256 PUSH1 0x2 DUP2 ADD SLOAD SWAP1 SWAP2 SWAP1 DUP5 GT PUSH2 0x97E JUMPI DUP4 DUP3 PUSH1 0x2 ADD SLOAD PUSH2 0x979 SWAP2 SWAP1 PUSH2 0x1FC9 JUMP JUMPDEST PUSH2 0x98D JUMP JUMPDEST PUSH1 0x2 DUP3 ADD SLOAD PUSH2 0x98D SWAP1 DUP6 PUSH2 0x1FC9 JUMP JUMPDEST SWAP1 POP PUSH2 0x1F4 DUP3 PUSH1 0x2 ADD SLOAD DUP3 PUSH2 0x2710 PUSH2 0x9A5 SWAP2 SWAP1 PUSH2 0x1F90 JUMP JUMPDEST PUSH2 0x9AF SWAP2 SWAP1 PUSH2 0x1FA7 JUMP JUMPDEST LT ISZERO PUSH2 0x9FD JUMPI PUSH1 0x40 MLOAD PUSH3 0x461BCD PUSH1 0xE5 SHL DUP2 MSTORE PUSH1 0x20 PUSH1 0x4 DUP3 ADD MSTORE PUSH1 0x1B PUSH1 0x24 DUP3 ADD MSTORE PUSH32 0x526562616C616E6365207468726573686F6C64206E6F74206D65740000000000 PUSH1 0x44 DUP3 ADD MSTORE PUSH1 0x64 ADD PUSH2 0x6F8 JUMP JUMPDEST PUSH1 0x2 DUP3 ADD DUP5 SWAP1 SSTORE TIMESTAMP PUSH1 0x5 DUP4 ADD SSTORE PUSH1 0x40 MLOAD DUP5 DUP2 MSTORE DUP6 SWAP1 PUSH32 0x24A740CB40A6A84F0D89235743529DE1CD5B25138C8611EDDA32E72582D2B907 SWAP1 PUSH1 0x20 ADD PUSH1 0x40 MLOAD DUP1 SWAP2 SUB SWAP1 LOG2 POP POP POP POP POP JUMP JUMPDEST PUSH2 0xA4E PUSH2 0x18F1 JUMP JUMPDEST PUSH2 0xA56 PUSH2 0x1923 JUMP JUMPDEST JUMP JUMPDEST PUSH2 0xA60 PUSH2 0x18A5 JUMP JUMPDEST PUSH2 0xA68 PUSH2 0x1983 JUMP JUMPDEST PUSH1 0x0 DUP2 GT PUSH2 0xAB8 JUMPI PUSH1 0x40 MLOAD PUSH3 0x461BCD PUSH1 0xE5 SHL DUP2 MSTORE PUSH1 0x20 PUSH1 0x4 DUP3 ADD MSTORE PUSH1 0x1D PUSH1 0x24 DUP3 ADD MSTORE PUSH32 0x416D6F756E74206D7573742062652067726561746572207468616E2030000000 PUSH1 0x44 DUP3 ADD MSTORE PUSH1 0x64 ADD PUSH2 0x6F8 JUMP JUMPDEST PUSH2 0xAC1 DUP3 PUSH2 0xF58 JUMP JUMPDEST PUSH2 0xB03 JUMPI PUSH1 0x40 MLOAD PUSH3 0x461BCD PUSH1 0xE5 SHL DUP2 MSTORE PUSH1 0x20 PUSH1 0x4 DUP3 ADD MSTORE PUSH1 0x13 PUSH1 0x24 DUP3 ADD MSTORE PUSH19 0x151BDAD95B881B9BDD081CDD5C1C1BDC9D1959 PUSH1 0x6A SHL PUSH1 0x44 DUP3 ADD MSTORE PUSH1 0x64 ADD PUSH2 0x6F8 JUMP JUMPDEST PUSH2 0xB18 PUSH1 0x1 PUSH1 0x1 PUSH1 0xA0 SHL SUB DUP4 AND CALLER ADDRESS DUP5 PUSH2 0x19B4 JUMP JUMPDEST CALLER PUSH1 0x0 SWAP1 DUP2 MSTORE PUSH1 0x2 PUSH1 0x20 MSTORE PUSH1 0x40 DUP2 KECCAK256 DUP1 SLOAD SWAP1 SWAP2 DUP4 SWAP2 DUP4 SWAP2 SWAP1 PUSH2 0xB3B SWAP1 DUP5 SWAP1 PUSH2 0x1F7D JUMP JUMPDEST SWAP1 SWAP2 SSTORE POP POP TIMESTAMP PUSH1 0x3 DUP3 ADD SSTORE PUSH1 0x6 DUP1 SLOAD DUP4 SWAP2 SWAP1 PUSH1 0x0 SWAP1 PUSH2 0xB5B SWAP1 DUP5 SWAP1 PUSH2 0x1F7D JUMP JUMPDEST SWAP1 SWAP2 SSTORE POP POP PUSH1 0x40 DUP1 MLOAD PUSH1 0x1 PUSH1 0x1 PUSH1 0xA0 SHL SUB DUP6 AND DUP2 MSTORE PUSH1 0x20 DUP2 ADD DUP5 SWAP1 MSTORE CALLER SWAP2 PUSH32 0x3BC57F469AD6D10D7723EA226CD22BD2B9E527DEF2B529F6AB44645A16689582 SWAP2 ADD JUMPDEST PUSH1 0x40 MLOAD DUP1 SWAP2 SUB SWAP1 LOG2 POP PUSH2 0xBBD PUSH1 0x1 PUSH1 0x0 DUP1 MLOAD PUSH1 0x20 PUSH2 0x2211 DUP4 CODECOPY DUP2 MLOAD SWAP2 MSTORE SSTORE JUMP JUMPDEST POP POP JUMP JUMPDEST CALLER PUSH1 0x0 SWAP1 DUP2 MSTORE PUSH1 0x3 PUSH1 0x20 MSTORE PUSH1 0x40 DUP2 KECCAK256 SLOAD PUSH1 0xFF AND DUP1 PUSH2 0xBF7 JUMPI POP PUSH2 0xBE2 PUSH2 0x143E JUMP JUMPDEST PUSH1 0x1 PUSH1 0x1 PUSH1 0xA0 SHL SUB AND CALLER PUSH1 0x1 PUSH1 0x1 PUSH1 0xA0 SHL SUB AND EQ JUMPDEST PUSH2 0xC13 JUMPI PUSH1 0x40 MLOAD PUSH3 0x461BCD PUSH1 0xE5 SHL DUP2 MSTORE PUSH1 0x4 ADD PUSH2 0x6F8 SWAP1 PUSH2 0x1F0F JUMP JUMPDEST PUSH1 0x1 PUSH1 0x1 PUSH1 0xA0 SHL SUB DUP5 AND PUSH1 0x0 SWAP1 DUP2 MSTORE PUSH1 0x1 PUSH1 0x20 MSTORE PUSH1 0x40 SWAP1 KECCAK256 PUSH1 0x5 ADD SLOAD PUSH1 0xFF AND PUSH2 0xC7E JUMPI PUSH1 0x40 MLOAD PUSH3 0x461BCD PUSH1 0xE5 SHL DUP2 MSTORE PUSH1 0x20 PUSH1 0x4 DUP3 ADD MSTORE PUSH1 0x18 PUSH1 0x24 DUP3 ADD MSTORE PUSH32 0x50726F746F636F6C206E6F742077686974656C69737465640000000000000000 PUSH1 0x44 DUP3 ADD MSTORE PUSH1 0x64 ADD PUSH2 0x6F8 JUMP JUMPDEST PUSH2 0x2710 DUP3 GT ISZERO PUSH2 0xCC5 JUMPI PUSH1 0x40 MLOAD PUSH3 0x461BCD PUSH1 0xE5 SHL DUP2 MSTORE PUSH1 0x20 PUSH1 0x4 DUP3 ADD MSTORE PUSH1 0x12 PUSH1 0x24 DUP3 ADD MSTORE PUSH18 0x496E76616C6964207269736B2073636F7265 PUSH1 0x70 SHL PUSH1 0x44 DUP3 ADD MSTORE PUSH1 0x64 ADD PUSH2 0x6F8 JUMP JUMPDEST PUSH1 0x40 MLOAD PUSH12 0xFFFFFFFFFFFFFFFFFFFFFFFF NOT PUSH1 0x60 DUP7 DUP2 SHL DUP3 AND PUSH1 0x20 DUP5 ADD MSTORE DUP6 SWAP1 SHL AND PUSH1 0x34 DUP3 ADD MSTORE TIMESTAMP PUSH1 0x48 DUP3 ADD MSTORE PUSH1 0x0 SWAP1 PUSH1 0x68 ADD PUSH1 0x40 DUP1 MLOAD PUSH1 0x1F NOT DUP2 DUP5 SUB ADD DUP2 MSTORE DUP3 DUP3 MSTORE DUP1 MLOAD PUSH1 0x20 SWAP2 DUP3 ADD KECCAK256 PUSH1 0xE0 DUP5 ADD DUP4 MSTORE PUSH1 0x1 PUSH1 0x1 PUSH1 0xA0 SHL SUB DUP1 DUP11 AND DUP6 MSTORE DUP9 DUP2 AND DUP6 DUP5 ADD SWAP1 DUP2 MSTORE PUSH1 0x0 DUP7 DUP7 ADD DUP2 DUP2 MSTORE PUSH1 0x60 DUP9 ADD DUP3 DUP2 MSTORE PUSH1 0x80 DUP10 ADD DUP13 DUP2 MSTORE TIMESTAMP PUSH1 0xA0 DUP12 ADD SWAP1 DUP2 MSTORE PUSH1 0x1 PUSH1 0xC0 DUP13 ADD DUP2 DUP2 MSTORE DUP10 DUP8 MSTORE SWAP10 DUP7 SWAP1 MSTORE DUP11 DUP7 KECCAK256 SWAP12 MLOAD DUP13 SLOAD SWAP1 DUP10 AND PUSH1 0x1 PUSH1 0x1 PUSH1 0xA0 SHL SUB NOT SWAP2 DUP3 AND OR DUP14 SSTORE SWAP7 MLOAD DUP13 DUP3 ADD DUP1 SLOAD SWAP2 SWAP1 SWAP10 AND SWAP8 AND SWAP7 SWAP1 SWAP7 OR SWAP1 SWAP7 SSTORE SWAP2 MLOAD PUSH1 0x2 DUP11 ADD SSTORE MLOAD PUSH1 0x3 DUP10 ADD SSTORE MLOAD PUSH1 0x4 DUP1 DUP10 ADD SWAP2 SWAP1 SWAP2 SSTORE SWAP3 MLOAD PUSH1 0x5 DUP9 ADD SSTORE SWAP4 MLOAD PUSH1 0x6 SWAP1 SWAP7 ADD DUP1 SLOAD SWAP7 ISZERO ISZERO PUSH1 0xFF NOT SWAP1 SWAP8 AND SWAP7 SWAP1 SWAP7 OR SWAP1 SWAP6 SSTORE DUP1 SLOAD SWAP5 DUP6 ADD DUP2 SSTORE SWAP1 SWAP2 MSTORE PUSH32 0x8A35ACFBC15FF81A39AE7D344FD709F28E8600B4AA8C65C6B64BFE7FE36BD19B SWAP1 SWAP3 ADD DUP3 SWAP1 SSTORE MLOAD SWAP1 SWAP2 POP DUP2 SWAP1 PUSH32 0x25AF3F78EC368BBDAFAAB7C1B422226ABC418DE785D2D0603A569FA6DC7F0841 SWAP1 PUSH2 0xE38 SWAP1 DUP9 SWAP1 DUP9 SWAP1 PUSH1 0x1 PUSH1 0x1 PUSH1 0xA0 SHL SUB SWAP3 DUP4 AND DUP2 MSTORE SWAP2 AND PUSH1 0x20 DUP3 ADD MSTORE PUSH1 0x40 ADD SWAP1 JUMP JUMPDEST PUSH1 0x40 MLOAD DUP1 SWAP2 SUB SWAP1 LOG2 SWAP5 SWAP4 POP POP POP POP JUMP JUMPDEST PUSH2 0xE50 PUSH2 0x18F1 JUMP JUMPDEST PUSH1 0x1 PUSH1 0x1 PUSH1 0xA0 SHL SUB DUP2 AND PUSH2 0xE9E JUMPI PUSH1 0x40 MLOAD PUSH3 0x461BCD PUSH1 0xE5 SHL DUP2 MSTORE PUSH1 0x20 PUSH1 0x4 DUP3 ADD MSTORE PUSH1 0x15 PUSH1 0x24 DUP3 ADD MSTORE PUSH21 0x496E76616C696420746F6B656E2061646472657373 PUSH1 0x58 SHL PUSH1 0x44 DUP3 ADD MSTORE PUSH1 0x64 ADD PUSH2 0x6F8 JUMP JUMPDEST PUSH2 0xEA7 DUP2 PUSH2 0xF58 JUMP JUMPDEST ISZERO PUSH2 0xEF4 JUMPI PUSH1 0x40 MLOAD PUSH3 0x461BCD PUSH1 0xE5 SHL DUP2 MSTORE PUSH1 0x20 PUSH1 0x4 DUP3 ADD MSTORE PUSH1 0x17 PUSH1 0x24 DUP3 ADD MSTORE PUSH32 0x546F6B656E20616C726561647920737570706F72746564000000000000000000 PUSH1 0x44 DUP3 ADD MSTORE PUSH1 0x64 ADD PUSH2 0x6F8 JUMP JUMPDEST PUSH1 0x5 DUP1 SLOAD PUSH1 0x1 DUP2 ADD DUP3 SSTORE PUSH1 0x0 SWAP2 SWAP1 SWAP2 MSTORE PUSH32 0x36B6384B5ECA791C62761152D0C79BB0604C104A5FB6F4EB0703F3154BB3DB0 ADD DUP1 SLOAD PUSH1 0x1 PUSH1 0x1 PUSH1 0xA0 SHL SUB NOT AND PUSH1 0x1 PUSH1 0x1 PUSH1 0xA0 SHL SUB SWAP3 SWAP1 SWAP3 AND SWAP2 SWAP1 SWAP2 OR SWAP1 SSTORE JUMP JUMPDEST PUSH2 0xF4E PUSH2 0x18F1 JUMP JUMPDEST PUSH2 0xA56 PUSH1 0x0 PUSH2 0x1A21 JUMP JUMPDEST PUSH1 0x0 DUP1 JUMPDEST PUSH1 0x5 SLOAD DUP2 LT ISZERO PUSH2 0xFB8 JUMPI DUP3 PUSH1 0x1 PUSH1 0x1 PUSH1 0xA0 SHL SUB AND PUSH1 0x5 DUP3 DUP2 SLOAD DUP2 LT PUSH2 0xF83 JUMPI PUSH2 0xF83 PUSH2 0x1FDC JUMP JUMPDEST PUSH1 0x0 SWAP2 DUP3 MSTORE PUSH1 0x20 SWAP1 SWAP2 KECCAK256 ADD SLOAD PUSH1 0x1 PUSH1 0x1 PUSH1 0xA0 SHL SUB AND SUB PUSH2 0xFA6 JUMPI POP PUSH1 0x1 SWAP3 SWAP2 POP POP JUMP JUMPDEST DUP1 PUSH2 0xFB0 DUP2 PUSH2 0x1FF2 JUMP JUMPDEST SWAP2 POP POP PUSH2 0xF5C JUMP JUMPDEST POP PUSH1 0x0 SWAP3 SWAP2 POP POP JUMP JUMPDEST PUSH2 0xFC9 PUSH2 0x18F1 JUMP JUMPDEST PUSH2 0xFD2 DUP2 PUSH2 0xF58 JUMP JUMPDEST PUSH2 0x1014 JUMPI PUSH1 0x40 MLOAD PUSH3 0x461BCD PUSH1 0xE5 SHL DUP2 MSTORE PUSH1 0x20 PUSH1 0x4 DUP3 ADD MSTORE PUSH1 0x13 PUSH1 0x24 DUP3 ADD MSTORE PUSH19 0x151BDAD95B881B9BDD081CDD5C1C1BDC9D1959 PUSH1 0x6A SHL PUSH1 0x44 DUP3 ADD MSTORE PUSH1 0x64 ADD PUSH2 0x6F8 JUMP JUMPDEST PUSH1 0x0 JUMPDEST PUSH1 0x5 SLOAD DUP2 LT ISZERO PUSH2 0xBBD JUMPI DUP2 PUSH1 0x1 PUSH1 0x1 PUSH1 0xA0 SHL SUB AND PUSH1 0x5 DUP3 DUP2 SLOAD DUP2 LT PUSH2 0x103E JUMPI PUSH2 0x103E PUSH2 0x1FDC JUMP JUMPDEST PUSH1 0x0 SWAP2 DUP3 MSTORE PUSH1 0x20 SWAP1 SWAP2 KECCAK256 ADD SLOAD PUSH1 0x1 PUSH1 0x1 PUSH1 0xA0 SHL SUB AND SUB PUSH2 0x1109 JUMPI PUSH1 0x5 DUP1 SLOAD PUSH2 0x1068 SWAP1 PUSH1 0x1 SWAP1 PUSH2 0x1FC9 JUMP JUMPDEST DUP2 SLOAD DUP2 LT PUSH2 0x1078 JUMPI PUSH2 0x1078 PUSH2 0x1FDC JUMP JUMPDEST PUSH1 0x0 SWAP2 DUP3 MSTORE PUSH1 0x20 SWAP1 SWAP2 KECCAK256 ADD SLOAD PUSH1 0x5 DUP1 SLOAD PUSH1 0x1 PUSH1 0x1 PUSH1 0xA0 SHL SUB SWAP1 SWAP3 AND SWAP2 DUP4 SWAP1 DUP2 LT PUSH2 0x10A4 JUMPI PUSH2 0x10A4 PUSH2 0x1FDC JUMP JUMPDEST SWAP1 PUSH1 0x0 MSTORE PUSH1 0x20 PUSH1 0x0 KECCAK256 ADD PUSH1 0x0 PUSH2 0x100 EXP DUP2 SLOAD DUP2 PUSH1 0x1 PUSH1 0x1 PUSH1 0xA0 SHL SUB MUL NOT AND SWAP1 DUP4 PUSH1 0x1 PUSH1 0x1 PUSH1 0xA0 SHL SUB AND MUL OR SWAP1 SSTORE POP PUSH1 0x5 DUP1 SLOAD DUP1 PUSH2 0x10E3 JUMPI PUSH2 0x10E3 PUSH2 0x200B JUMP JUMPDEST PUSH1 0x0 DUP3 DUP2 MSTORE PUSH1 0x20 SWAP1 KECCAK256 DUP2 ADD PUSH1 0x0 NOT SWAP1 DUP2 ADD DUP1 SLOAD PUSH1 0x1 PUSH1 0x1 PUSH1 0xA0 SHL SUB NOT AND SWAP1 SSTORE ADD SWAP1 SSTORE POP POP JUMP JUMPDEST DUP1 PUSH2 0x1113 DUP2 PUSH2 0x1FF2 JUMP JUMPDEST SWAP2 POP POP PUSH2 0x1017 JUMP JUMPDEST PUSH1 0x0 PUSH2 0x1125 PUSH2 0x1A92 JUMP JUMPDEST DUP1 SLOAD SWAP1 SWAP2 POP PUSH1 0xFF PUSH1 0x1 PUSH1 0x40 SHL DUP3 DIV AND ISZERO SWAP1 PUSH8 0xFFFFFFFFFFFFFFFF AND PUSH1 0x0 DUP2 ISZERO DUP1 ISZERO PUSH2 0x114D JUMPI POP DUP3 JUMPDEST SWAP1 POP PUSH1 0x0 DUP3 PUSH8 0xFFFFFFFFFFFFFFFF AND PUSH1 0x1 EQ DUP1 ISZERO PUSH2 0x116A JUMPI POP ADDRESS EXTCODESIZE ISZERO JUMPDEST SWAP1 POP DUP2 ISZERO DUP1 ISZERO PUSH2 0x1178 JUMPI POP DUP1 ISZERO JUMPDEST ISZERO PUSH2 0x1196 JUMPI PUSH1 0x40 MLOAD PUSH4 0xF92EE8A9 PUSH1 0xE0 SHL DUP2 MSTORE PUSH1 0x4 ADD PUSH1 0x40 MLOAD DUP1 SWAP2 SUB SWAP1 REVERT JUMPDEST DUP5 SLOAD PUSH8 0xFFFFFFFFFFFFFFFF NOT AND PUSH1 0x1 OR DUP6 SSTORE DUP4 ISZERO PUSH2 0x11C0 JUMPI DUP5 SLOAD PUSH1 0xFF PUSH1 0x40 SHL NOT AND PUSH1 0x1 PUSH1 0x40 SHL OR DUP6 SSTORE JUMPDEST PUSH2 0x11C9 DUP9 PUSH2 0x1ABD JUMP JUMPDEST PUSH2 0x11D1 PUSH2 0x1ACE JUMP JUMPDEST PUSH2 0x11D9 PUSH2 0x1ADE JUMP JUMPDEST PUSH1 0x7 DUP8 SWAP1 SSTORE PUSH1 0x8 DUP7 SWAP1 SSTORE DUP4 ISZERO PUSH2 0x1229 JUMPI DUP5 SLOAD PUSH1 0xFF PUSH1 0x40 SHL NOT AND DUP6 SSTORE PUSH1 0x40 MLOAD PUSH1 0x1 DUP2 MSTORE PUSH32 0xC7F505B2F371AE2175EE4913F4499E1F2633A7B5936321EED1CDAEB6115181D2 SWAP1 PUSH1 0x20 ADD PUSH1 0x40 MLOAD DUP1 SWAP2 SUB SWAP1 LOG1 JUMPDEST POP POP POP POP POP POP POP POP JUMP JUMPDEST PUSH2 0x123B PUSH2 0x18F1 JUMP JUMPDEST PUSH1 0x40 MLOAD DUP1 PUSH1 0xC0 ADD PUSH1 0x40 MSTORE DUP1 DUP6 PUSH1 0x1 PUSH1 0x1 PUSH1 0xA0 SHL SUB AND DUP2 MSTORE PUSH1 0x20 ADD DUP5 DUP5 DUP1 DUP1 PUSH1 0x1F ADD PUSH1 0x20 DUP1 SWAP2 DIV MUL PUSH1 0x20 ADD PUSH1 0x40 MLOAD SWAP1 DUP2 ADD PUSH1 0x40 MSTORE DUP1 SWAP4 SWAP3 SWAP2 SWAP1 DUP2 DUP2 MSTORE PUSH1 0x20 ADD DUP4 DUP4 DUP1 DUP3 DUP5 CALLDATACOPY PUSH1 0x0 SWAP3 ADD DUP3 SWAP1 MSTORE POP SWAP4 DUP6 MSTORE POP POP POP PUSH1 0x20 DUP1 DUP4 ADD DUP3 SWAP1 MSTORE PUSH1 0x40 DUP1 DUP5 ADD DUP4 SWAP1 MSTORE PUSH1 0x60 DUP5 ADD DUP7 SWAP1 MSTORE PUSH1 0x1 PUSH1 0x80 SWAP1 SWAP5 ADD DUP5 SWAP1 MSTORE PUSH1 0x1 PUSH1 0x1 PUSH1 0xA0 SHL SUB DUP10 DUP2 AND DUP5 MSTORE DUP5 DUP4 MSTORE SWAP3 KECCAK256 DUP5 MLOAD DUP2 SLOAD PUSH1 0x1 PUSH1 0x1 PUSH1 0xA0 SHL SUB NOT AND SWAP4 AND SWAP3 SWAP1 SWAP3 OR DUP3 SSTORE DUP4 ADD MLOAD SWAP1 SWAP2 DUP3 ADD SWAP1 PUSH2 0x12E8 SWAP1 DUP3 PUSH2 0x20BF JUMP JUMPDEST POP PUSH1 0x40 DUP3 DUP2 ADD MLOAD PUSH1 0x2 DUP4 ADD SSTORE PUSH1 0x60 DUP4 ADD MLOAD PUSH1 0x3 DUP4 ADD SSTORE PUSH1 0x80 DUP4 ADD MLOAD PUSH1 0x4 DUP4 ADD SSTORE PUSH1 0xA0 SWAP1 SWAP3 ADD MLOAD PUSH1 0x5 SWAP1 SWAP2 ADD DUP1 SLOAD PUSH1 0xFF NOT AND SWAP2 ISZERO ISZERO SWAP2 SWAP1 SWAP2 OR SWAP1 SSTORE MLOAD PUSH32 0x73BDF89E59EDFB29506FABA5617B5A05784F35F90F1652BDC33BE18659EEBFAF SWAP1 PUSH2 0x1354 SWAP1 DUP7 SWAP1 DUP7 SWAP1 DUP7 SWAP1 PUSH2 0x21A8 JUMP JUMPDEST PUSH1 0x40 MLOAD DUP1 SWAP2 SUB SWAP1 LOG1 POP POP POP POP JUMP JUMPDEST PUSH1 0x1 PUSH1 0x20 DUP2 SWAP1 MSTORE PUSH1 0x0 SWAP2 DUP3 MSTORE PUSH1 0x40 SWAP1 SWAP2 KECCAK256 DUP1 SLOAD SWAP2 DUP2 ADD DUP1 SLOAD PUSH1 0x1 PUSH1 0x1 PUSH1 0xA0 SHL SUB SWAP1 SWAP4 AND SWAP3 PUSH2 0x138F SWAP1 PUSH2 0x2037 JUMP JUMPDEST DUP1 PUSH1 0x1F ADD PUSH1 0x20 DUP1 SWAP2 DIV MUL PUSH1 0x20 ADD PUSH1 0x40 MLOAD SWAP1 DUP2 ADD PUSH1 0x40 MSTORE DUP1 SWAP3 SWAP2 SWAP1 DUP2 DUP2 MSTORE PUSH1 0x20 ADD DUP3 DUP1 SLOAD PUSH2 0x13BB SWAP1 PUSH2 0x2037 JUMP JUMPDEST DUP1 ISZERO PUSH2 0x1408 JUMPI DUP1 PUSH1 0x1F LT PUSH2 0x13DD JUMPI PUSH2 0x100 DUP1 DUP4 SLOAD DIV MUL DUP4 MSTORE SWAP2 PUSH1 0x20 ADD SWAP2 PUSH2 0x1408 JUMP JUMPDEST DUP3 ADD SWAP2 SWAP1 PUSH1 0x0 MSTORE PUSH1 0x20 PUSH1 0x0 KECCAK256 SWAP1 JUMPDEST DUP2 SLOAD DUP2 MSTORE SWAP1 PUSH1 0x1 ADD SWAP1 PUSH1 0x20 ADD DUP1 DUP4 GT PUSH2 0x13EB JUMPI DUP3 SWAP1 SUB PUSH1 0x1F AND DUP3 ADD SWAP2 JUMPDEST POP POP POP POP PUSH1 0x2 DUP4 ADD SLOAD PUSH1 0x3 DUP5 ADD SLOAD PUSH1 0x4 DUP6 ADD SLOAD PUSH1 0x5 SWAP1 SWAP6 ADD SLOAD SWAP4 SWAP5 SWAP2 SWAP4 SWAP1 SWAP3 POP PUSH1 0xFF AND DUP7 JUMP JUMPDEST PUSH2 0x1436 PUSH2 0x18F1 JUMP JUMPDEST PUSH2 0xA56 PUSH2 0x1AE6 JUMP JUMPDEST PUSH32 0x9016D09D72D40FDAE2FD8CEAC6B6234C7706214FD39C1CD1E609A0528C199300 SLOAD PUSH1 0x1 PUSH1 0x1 PUSH1 0xA0 SHL SUB AND SWAP1 JUMP JUMPDEST PUSH1 0x4 DUP2 DUP2 SLOAD DUP2 LT PUSH2 0x147C JUMPI PUSH1 0x0 DUP1 REVERT JUMPDEST PUSH1 0x0 SWAP2 DUP3 MSTORE PUSH1 0x20 SWAP1 SWAP2 KECCAK256 ADD SLOAD SWAP1 POP DUP2 JUMP JUMPDEST CALLER PUSH1 0x0 SWAP1 DUP2 MSTORE PUSH1 0x3 PUSH1 0x20 MSTORE PUSH1 0x40 SWAP1 KECCAK256 SLOAD PUSH1 0xFF AND DUP1 PUSH2 0x14C3 JUMPI POP PUSH2 0x14AE PUSH2 0x143E JUMP JUMPDEST PUSH1 0x1 PUSH1 0x1 PUSH1 0xA0 SHL SUB AND CALLER PUSH1 0x1 PUSH1 0x1 PUSH1 0xA0 SHL SUB AND EQ JUMPDEST PUSH2 0x14DF JUMPI PUSH1 0x40 MLOAD PUSH3 0x461BCD PUSH1 0xE5 SHL DUP2 MSTORE PUSH1 0x4 ADD PUSH2 0x6F8 SWAP1 PUSH2 0x1F0F JUMP JUMPDEST PUSH1 0x0 DUP4 DUP2 MSTORE PUSH1 0x20 DUP2 SWAP1 MSTORE PUSH1 0x40 SWAP1 KECCAK256 PUSH1 0x6 ADD SLOAD DUP4 SWAP1 PUSH1 0xFF AND PUSH2 0x1512 JUMPI PUSH1 0x40 MLOAD PUSH3 0x461BCD PUSH1 0xE5 SHL DUP2 MSTORE PUSH1 0x4 ADD PUSH2 0x6F8 SWAP1 PUSH2 0x1F3A JUMP JUMPDEST PUSH1 0x0 DUP5 DUP2 MSTORE PUSH1 0x20 DUP2 SWAP1 MSTORE PUSH1 0x40 DUP2 KECCAK256 PUSH1 0x2 DUP2 ADD DUP1 SLOAD SWAP1 DUP4 SWAP1 SSTORE PUSH1 0x6 DUP1 DUP4 ADD DUP1 SLOAD PUSH1 0xFF NOT AND SWAP1 SSTORE DUP1 SLOAD SWAP3 SWAP4 SWAP2 SWAP3 DUP4 SWAP3 SWAP1 PUSH2 0x154B SWAP1 DUP5 SWAP1 PUSH2 0x1FC9 JUMP JUMPDEST SWAP3 POP POP DUP2 SWAP1 SSTORE POP DUP6 PUSH32 0xCFD157F1A60EBC60B8AE73EDA330D482BCC8C97544A55AD24D680A8385E8E2EF DUP3 DUP8 DUP8 PUSH1 0x40 MLOAD PUSH2 0x1586 SWAP4 SWAP3 SWAP2 SWAP1 PUSH2 0x21D6 JUMP JUMPDEST PUSH1 0x40 MLOAD DUP1 SWAP2 SUB SWAP1 LOG2 POP POP POP POP POP POP JUMP JUMPDEST PUSH2 0x159E PUSH2 0x18F1 JUMP JUMPDEST PUSH1 0x1 PUSH1 0x1 PUSH1 0xA0 SHL SUB DUP3 AND PUSH1 0x0 DUP2 DUP2 MSTORE PUSH1 0x3 PUSH1 0x20 SWAP1 DUP2 MSTORE PUSH1 0x40 SWAP2 DUP3 SWAP1 KECCAK256 DUP1 SLOAD PUSH1 0xFF NOT AND DUP6 ISZERO ISZERO SWAP1 DUP2 OR SWAP1 SWAP2 SSTORE DUP3 MLOAD SWAP4 DUP5 MSTORE SWAP1 DUP4 ADD MSTORE PUSH32 0x98A76E3487B9ABBA61E3D05A76BD19B431E14ED2126711F32F5B22082B0E77EF SWAP2 ADD PUSH1 0x40 MLOAD DUP1 SWAP2 SUB SWAP1 LOG1 POP POP JUMP JUMPDEST PUSH1 0x0 DUP1 DUP1 JUMPDEST PUSH1 0x4 SLOAD DUP2 LT ISZERO PUSH2 0x16AD JUMPI DUP4 PUSH1 0x1 PUSH1 0x1 PUSH1 0xA0 SHL SUB AND PUSH1 0x0 DUP1 PUSH1 0x4 DUP5 DUP2 SLOAD DUP2 LT PUSH2 0x1630 JUMPI PUSH2 0x1630 PUSH2 0x1FDC JUMP JUMPDEST PUSH1 0x0 SWAP2 DUP3 MSTORE PUSH1 0x20 DUP1 DUP4 KECCAK256 SWAP1 SWAP2 ADD SLOAD DUP4 MSTORE DUP3 ADD SWAP3 SWAP1 SWAP3 MSTORE PUSH1 0x40 ADD SWAP1 KECCAK256 SLOAD PUSH1 0x1 PUSH1 0x1 PUSH1 0xA0 SHL SUB AND SUB PUSH2 0x169B JUMPI PUSH1 0x0 DUP1 PUSH1 0x4 DUP4 DUP2 SLOAD DUP2 LT PUSH2 0x1670 JUMPI PUSH2 0x1670 PUSH2 0x1FDC JUMP JUMPDEST SWAP1 PUSH1 0x0 MSTORE PUSH1 0x20 PUSH1 0x0 KECCAK256 ADD SLOAD DUP2 MSTORE PUSH1 0x20 ADD SWAP1 DUP2 MSTORE PUSH1 0x20 ADD PUSH1 0x0 KECCAK256 PUSH1 0x2 ADD SLOAD DUP3 PUSH2 0x1698 SWAP2 SWAP1 PUSH2 0x1F7D JUMP JUMPDEST SWAP2 POP JUMPDEST DUP1 PUSH2 0x16A5 DUP2 PUSH2 0x1FF2 JUMP JUMPDEST SWAP2 POP POP PUSH2 0x1606 JUMP JUMPDEST POP SWAP3 SWAP2 POP POP JUMP JUMPDEST PUSH1 0x5 DUP2 DUP2 SLOAD DUP2 LT PUSH2 0x16C4 JUMPI PUSH1 0x0 DUP1 REVERT JUMPDEST PUSH1 0x0 SWAP2 DUP3 MSTORE PUSH1 0x20 SWAP1 SWAP2 KECCAK256 ADD SLOAD PUSH1 0x1 PUSH1 0x1 PUSH1 0xA0 SHL SUB AND SWAP1 POP DUP2 JUMP JUMPDEST CALLER PUSH1 0x0 SWAP1 DUP2 MSTORE PUSH1 0x3 PUSH1 0x20 MSTORE PUSH1 0x40 SWAP1 KECCAK256 SLOAD PUSH1 0xFF AND DUP1 PUSH2 0x1714 JUMPI POP PUSH2 0x16FF PUSH2 0x143E JUMP JUMPDEST PUSH1 0x1 PUSH1 0x1 PUSH1 0xA0 SHL SUB AND CALLER PUSH1 0x1 PUSH1 0x1 PUSH1 0xA0 SHL SUB AND EQ JUMPDEST PUSH2 0x1730 JUMPI PUSH1 0x40 MLOAD PUSH3 0x461BCD PUSH1 0xE5 SHL DUP2 MSTORE PUSH1 0x4 ADD PUSH2 0x6F8 SWAP1 PUSH2 0x1F0F JUMP JUMPDEST PUSH1 0x0 DUP3 DUP2 MSTORE PUSH1 0x20 DUP2 SWAP1 MSTORE PUSH1 0x40 SWAP1 KECCAK256 PUSH1 0x6 ADD SLOAD DUP3 SWAP1 PUSH1 0xFF AND PUSH2 0x1763 JUMPI PUSH1 0x40 MLOAD PUSH3 0x461BCD PUSH1 0xE5 SHL DUP2 MSTORE PUSH1 0x4 ADD PUSH2 0x6F8 SWAP1 PUSH2 0x1F3A JUMP JUMPDEST POP PUSH1 0x0 SWAP2 DUP3 MSTORE PUSH1 0x20 DUP3 SWAP1 MSTORE PUSH1 0x40 SWAP1 SWAP2 KECCAK256 PUSH1 0x3 ADD SSTORE JUMP JUMPDEST PUSH2 0x1781 PUSH2 0x18F1 JUMP JUMPDEST PUSH1 0x1 PUSH1 0x1 PUSH1 0xA0 SHL SUB DUP2 AND PUSH2 0x17AB JUMPI PUSH1 0x40 MLOAD PUSH4 0x1E4FBDF7 PUSH1 0xE0 SHL DUP2 MSTORE PUSH1 0x0 PUSH1 0x4 DUP3 ADD MSTORE PUSH1 0x24 ADD PUSH2 0x6F8 JUMP JUMPDEST PUSH2 0x17B4 DUP2 PUSH2 0x1A21 JUMP JUMPDEST POP JUMP JUMPDEST PUSH2 0x17BF PUSH2 0x18A5 JUMP JUMPDEST CALLER PUSH1 0x0 SWAP1 DUP2 MSTORE PUSH1 0x2 PUSH1 0x20 MSTORE PUSH1 0x40 SWAP1 KECCAK256 DUP1 SLOAD DUP3 GT ISZERO PUSH2 0x1816 JUMPI PUSH1 0x40 MLOAD PUSH3 0x461BCD PUSH1 0xE5 SHL DUP2 MSTORE PUSH1 0x20 PUSH1 0x4 DUP3 ADD MSTORE PUSH1 0x14 PUSH1 0x24 DUP3 ADD MSTORE PUSH20 0x496E73756666696369656E742062616C616E6365 PUSH1 0x60 SHL PUSH1 0x44 DUP3 ADD MSTORE PUSH1 0x64 ADD PUSH2 0x6F8 JUMP JUMPDEST DUP2 DUP2 PUSH1 0x0 ADD PUSH1 0x0 DUP3 DUP3 SLOAD PUSH2 0x182A SWAP2 SWAP1 PUSH2 0x1FC9 JUMP JUMPDEST SWAP1 SWAP2 SSTORE POP POP TIMESTAMP PUSH1 0x3 DUP3 ADD SSTORE PUSH1 0x6 DUP1 SLOAD DUP4 SWAP2 SWAP1 PUSH1 0x0 SWAP1 PUSH2 0x184A SWAP1 DUP5 SWAP1 PUSH2 0x1FC9 JUMP JUMPDEST SWAP1 SWAP2 SSTORE POP PUSH2 0x1864 SWAP1 POP PUSH1 0x1 PUSH1 0x1 PUSH1 0xA0 SHL SUB DUP5 AND CALLER DUP5 PUSH2 0x1B2F JUMP JUMPDEST PUSH1 0x40 DUP1 MLOAD PUSH1 0x1 PUSH1 0x1 PUSH1 0xA0 SHL SUB DUP6 AND DUP2 MSTORE PUSH1 0x20 DUP2 ADD DUP5 SWAP1 MSTORE CALLER SWAP2 PUSH32 0x6985A6DD52AEB8194DF40B7AF2F362F362440AFFC39C1314649ABC28DBF6B628 SWAP2 ADD PUSH2 0xB9D JUMP JUMPDEST PUSH1 0x0 DUP1 MLOAD PUSH1 0x20 PUSH2 0x2211 DUP4 CODECOPY DUP2 MLOAD SWAP2 MSTORE DUP1 SLOAD PUSH1 0x1 NOT ADD PUSH2 0x18D7 JUMPI PUSH1 0x40 MLOAD PUSH4 0x3EE5AEB5 PUSH1 0xE0 SHL DUP2 MSTORE PUSH1 0x4 ADD PUSH1 0x40 MLOAD DUP1 SWAP2 SUB SWAP1 REVERT JUMPDEST PUSH1 0x2 SWAP1 SSTORE JUMP JUMPDEST PUSH1 0x1 PUSH1 0x0 DUP1 MLOAD PUSH1 0x20 PUSH2 0x2211 DUP4 CODECOPY DUP2 MLOAD SWAP2 MSTORE SSTORE JUMP JUMPDEST CALLER PUSH2 0x18FA PUSH2 0x143E JUMP JUMPDEST PUSH1 0x1 PUSH1 0x1 PUSH1 0xA0 SHL SUB AND EQ PUSH2 0xA56 JUMPI PUSH1 0x40 MLOAD PUSH4 0x118CDAA7 PUSH1 0xE0 SHL DUP2 MSTORE CALLER PUSH1 0x4 DUP3 ADD MSTORE PUSH1 0x24 ADD PUSH2 0x6F8 JUMP JUMPDEST PUSH2 0x192B PUSH2 0x1B60 JUMP JUMPDEST PUSH1 0x0 DUP1 MLOAD PUSH1 0x20 PUSH2 0x21F1 DUP4 CODECOPY DUP2 MLOAD SWAP2 MSTORE DUP1 SLOAD PUSH1 0xFF NOT AND DUP2 SSTORE PUSH32 0x5DB9EE0A495BF2E6FF9C91A7834C1BA4FDD244A5E8AA4E537BD38AEAE4B073AA CALLER JUMPDEST PUSH1 0x40 MLOAD PUSH1 0x1 PUSH1 0x1 PUSH1 0xA0 SHL SUB SWAP1 SWAP2 AND DUP2 MSTORE PUSH1 0x20 ADD PUSH1 0x40 MLOAD DUP1 SWAP2 SUB SWAP1 LOG1 POP JUMP JUMPDEST PUSH1 0x0 DUP1 MLOAD PUSH1 0x20 PUSH2 0x21F1 DUP4 CODECOPY DUP2 MLOAD SWAP2 MSTORE SLOAD PUSH1 0xFF AND ISZERO PUSH2 0xA56 JUMPI PUSH1 0x40 MLOAD PUSH4 0xD93C0665 PUSH1 0xE0 SHL DUP2 MSTORE PUSH1 0x4 ADD PUSH1 0x40 MLOAD DUP1 SWAP2 SUB SWAP1 REVERT JUMPDEST PUSH1 0x40 MLOAD PUSH1 0x1 PUSH1 0x1 PUSH1 0xA0 SHL SUB DUP5 DUP2 AND PUSH1 0x24 DUP4 ADD MSTORE DUP4 DUP2 AND PUSH1 0x44 DUP4 ADD MSTORE PUSH1 0x64 DUP3 ADD DUP4 SWAP1 MSTORE PUSH2 0x1A1B SWAP2 DUP7 SWAP2 DUP3 AND SWAP1 PUSH4 0x23B872DD SWAP1 PUSH1 0x84 ADD JUMPDEST PUSH1 0x40 MLOAD PUSH1 0x20 DUP2 DUP4 SUB SUB DUP2 MSTORE SWAP1 PUSH1 0x40 MSTORE SWAP2 POP PUSH1 0xE0 SHL PUSH1 0x20 DUP3 ADD DUP1 MLOAD PUSH1 0x1 PUSH1 0x1 PUSH1 0xE0 SHL SUB DUP4 DUP2 DUP4 AND OR DUP4 MSTORE POP POP POP POP PUSH2 0x1B90 JUMP JUMPDEST POP POP POP POP JUMP JUMPDEST PUSH32 0x9016D09D72D40FDAE2FD8CEAC6B6234C7706214FD39C1CD1E609A0528C199300 DUP1 SLOAD PUSH1 0x1 PUSH1 0x1 PUSH1 0xA0 SHL SUB NOT DUP2 AND PUSH1 0x1 PUSH1 0x1 PUSH1 0xA0 SHL SUB DUP5 DUP2 AND SWAP2 DUP3 OR DUP5 SSTORE PUSH1 0x40 MLOAD SWAP3 AND SWAP2 DUP3 SWAP1 PUSH32 0x8BE0079C531659141344CD1FD0A4F28419497F9722A3DAAFE3B4186F6B6457E0 SWAP1 PUSH1 0x0 SWAP1 LOG3 POP POP POP JUMP JUMPDEST PUSH1 0x0 DUP1 PUSH32 0xF0C57E16840DF040F15088DC2F81FE391C3923BEC73E23A9662EFC9C229C6A00 JUMPDEST SWAP3 SWAP2 POP POP JUMP JUMPDEST PUSH2 0x1AC5 PUSH2 0x1C01 JUMP JUMPDEST PUSH2 0x17B4 DUP2 PUSH2 0x1C26 JUMP JUMPDEST PUSH2 0x1AD6 PUSH2 0x1C01 JUMP JUMPDEST PUSH2 0xA56 PUSH2 0x1C2E JUMP JUMPDEST PUSH2 0xA56 PUSH2 0x1C01 JUMP JUMPDEST PUSH2 0x1AEE PUSH2 0x1983 JUMP JUMPDEST PUSH1 0x0 DUP1 MLOAD PUSH1 0x20 PUSH2 0x21F1 DUP4 CODECOPY DUP2 MLOAD SWAP2 MSTORE DUP1 SLOAD PUSH1 0xFF NOT AND PUSH1 0x1 OR DUP2 SSTORE PUSH32 0x62E78CEA01BEE320CD4E420270B5EA74000D11B0C9F74754EBDBFC544B05A258 CALLER PUSH2 0x1965 JUMP JUMPDEST PUSH1 0x40 MLOAD PUSH1 0x1 PUSH1 0x1 PUSH1 0xA0 SHL SUB DUP4 DUP2 AND PUSH1 0x24 DUP4 ADD MSTORE PUSH1 0x44 DUP3 ADD DUP4 SWAP1 MSTORE PUSH2 0x8C3 SWAP2 DUP6 SWAP2 DUP3 AND SWAP1 PUSH4 0xA9059CBB SWAP1 PUSH1 0x64 ADD PUSH2 0x19E9 JUMP JUMPDEST PUSH1 0x0 DUP1 MLOAD PUSH1 0x20 PUSH2 0x21F1 DUP4 CODECOPY DUP2 MLOAD SWAP2 MSTORE SLOAD PUSH1 0xFF AND PUSH2 0xA56 JUMPI PUSH1 0x40 MLOAD PUSH4 0x8DFC202B PUSH1 0xE0 SHL DUP2 MSTORE PUSH1 0x4 ADD PUSH1 0x40 MLOAD DUP1 SWAP2 SUB SWAP1 REVERT JUMPDEST PUSH1 0x0 DUP1 PUSH1 0x20 PUSH1 0x0 DUP5 MLOAD PUSH1 0x20 DUP7 ADD PUSH1 0x0 DUP9 GAS CALL DUP1 PUSH2 0x1BB3 JUMPI PUSH1 0x40 MLOAD RETURNDATASIZE PUSH1 0x0 DUP3 RETURNDATACOPY RETURNDATASIZE DUP2 REVERT JUMPDEST POP POP PUSH1 0x0 MLOAD RETURNDATASIZE SWAP2 POP DUP2 ISZERO PUSH2 0x1BCB JUMPI DUP1 PUSH1 0x1 EQ ISZERO PUSH2 0x1BD8 JUMP JUMPDEST PUSH1 0x1 PUSH1 0x1 PUSH1 0xA0 SHL SUB DUP5 AND EXTCODESIZE ISZERO JUMPDEST ISZERO PUSH2 0x1A1B JUMPI PUSH1 0x40 MLOAD PUSH4 0x5274AFE7 PUSH1 0xE0 SHL DUP2 MSTORE PUSH1 0x1 PUSH1 0x1 PUSH1 0xA0 SHL SUB DUP6 AND PUSH1 0x4 DUP3 ADD MSTORE PUSH1 0x24 ADD PUSH2 0x6F8 JUMP JUMPDEST PUSH2 0x1C09 PUSH2 0x1C36 JUMP JUMPDEST PUSH2 0xA56 JUMPI PUSH1 0x40 MLOAD PUSH4 0x1AFCD79F PUSH1 0xE3 SHL DUP2 MSTORE PUSH1 0x4 ADD PUSH1 0x40 MLOAD DUP1 SWAP2 SUB SWAP1 REVERT JUMPDEST PUSH2 0x1781 PUSH2 0x1C01 JUMP JUMPDEST PUSH2 0x18DD PUSH2 0x1C01 JUMP JUMPDEST PUSH1 0x0 PUSH2 0x1C40 PUSH2 0x1A92 JUMP JUMPDEST SLOAD PUSH1 0x1 PUSH1 0x40 SHL SWAP1 DIV PUSH1 0xFF AND SWAP2 SWAP1 POP JUMP JUMPDEST PUSH1 0x0 PUSH1 0x20 DUP3 DUP5 SUB SLT ISZERO PUSH2 0x1C62 JUMPI PUSH1 0x0 DUP1 REVERT JUMPDEST POP CALLDATALOAD SWAP2 SWAP1 POP JUMP JUMPDEST PUSH1 0x0 DUP1 PUSH1 0x40 DUP4 DUP6 SUB SLT ISZERO PUSH2 0x1C7C JUMPI PUSH1 0x0 DUP1 REVERT JUMPDEST POP POP DUP1 CALLDATALOAD SWAP3 PUSH1 0x20 SWAP1 SWAP2 ADD CALLDATALOAD SWAP2 POP JUMP JUMPDEST DUP1 CALLDATALOAD PUSH1 0x1 PUSH1 0x1 PUSH1 0xA0 SHL SUB DUP2 AND DUP2 EQ PUSH2 0x1CA2 JUMPI PUSH1 0x0 DUP1 REVERT JUMPDEST SWAP2 SWAP1 POP JUMP JUMPDEST PUSH1 0x0 DUP1 PUSH1 0x40 DUP4 DUP6 SUB SLT ISZERO PUSH2 0x1CBA JUMPI PUSH1 0x0 DUP1 REVERT JUMPDEST PUSH2 0x1CC3 DUP4 PUSH2 0x1C8B JUMP JUMPDEST SWAP5 PUSH1 0x20 SWAP4 SWAP1 SWAP4 ADD CALLDATALOAD SWAP4 POP POP POP JUMP JUMPDEST PUSH1 0x0 DUP1 PUSH1 0x0 PUSH1 0x60 DUP5 DUP7 SUB SLT ISZERO PUSH2 0x1CE6 JUMPI PUSH1 0x0 DUP1 REVERT JUMPDEST PUSH2 0x1CEF DUP5 PUSH2 0x1C8B JUMP JUMPDEST SWAP3 POP PUSH2 0x1CFD PUSH1 0x20 DUP6 ADD PUSH2 0x1C8B JUMP JUMPDEST SWAP2 POP PUSH1 0x40 DUP5 ADD CALLDATALOAD SWAP1 POP SWAP3 POP SWAP3 POP SWAP3 JUMP JUMPDEST PUSH1 0x0 PUSH1 0x20 DUP3 DUP5 SUB SLT ISZERO PUSH2 0x1D1F JUMPI PUSH1 0x0 DUP1 REVERT JUMPDEST PUSH2 0x1D28 DUP3 PUSH2 0x1C8B JUMP JUMPDEST SWAP4 SWAP3 POP POP POP JUMP JUMPDEST PUSH1 0x0 DUP1 PUSH1 0x0 PUSH1 0x60 DUP5 DUP7 SUB SLT ISZERO PUSH2 0x1D44 JUMPI PUSH1 0x0 DUP1 REVERT JUMPDEST PUSH2 0x1D4D DUP5 PUSH2 0x1C8B JUMP JUMPDEST SWAP6 PUSH1 0x20 DUP6 ADD CALLDATALOAD SWAP6 POP PUSH1 0x40 SWAP1 SWAP5 ADD CALLDATALOAD SWAP4 SWAP3 POP POP POP JUMP JUMPDEST PUSH1 0x0 DUP1 DUP4 PUSH1 0x1F DUP5 ADD SLT PUSH2 0x1D74 JUMPI PUSH1 0x0 DUP1 REVERT JUMPDEST POP DUP2 CALLDATALOAD PUSH8 0xFFFFFFFFFFFFFFFF DUP2 GT ISZERO PUSH2 0x1D8C JUMPI PUSH1 0x0 DUP1 REVERT JUMPDEST PUSH1 0x20 DUP4 ADD SWAP2 POP DUP4 PUSH1 0x20 DUP3 DUP6 ADD ADD GT ISZERO PUSH2 0x1DA4 JUMPI PUSH1 0x0 DUP1 REVERT JUMPDEST SWAP3 POP SWAP3 SWAP1 POP JUMP JUMPDEST PUSH1 0x0 DUP1 PUSH1 0x0 DUP1 PUSH1 0x60 DUP6 DUP8 SUB SLT ISZERO PUSH2 0x1DC1 JUMPI PUSH1 0x0 DUP1 REVERT JUMPDEST PUSH2 0x1DCA DUP6 PUSH2 0x1C8B JUMP JUMPDEST SWAP4 POP PUSH1 0x20 DUP6 ADD CALLDATALOAD PUSH8 0xFFFFFFFFFFFFFFFF DUP2 GT ISZERO PUSH2 0x1DE6 JUMPI PUSH1 0x0 DUP1 REVERT JUMPDEST PUSH2 0x1DF2 DUP8 DUP3 DUP9 ADD PUSH2 0x1D62 JUMP JUMPDEST SWAP6 SWAP9 SWAP1 SWAP8 POP SWAP5 SWAP6 PUSH1 0x40 ADD CALLDATALOAD SWAP5 SWAP4 POP POP POP POP JUMP JUMPDEST PUSH1 0x1 DUP1 PUSH1 0xA0 SHL SUB DUP8 AND DUP2 MSTORE PUSH1 0x0 PUSH1 0x20 PUSH1 0xC0 DUP2 DUP5 ADD MSTORE DUP8 MLOAD DUP1 PUSH1 0xC0 DUP6 ADD MSTORE PUSH1 0x0 JUMPDEST DUP2 DUP2 LT ISZERO PUSH2 0x1E41 JUMPI DUP10 DUP2 ADD DUP4 ADD MLOAD DUP6 DUP3 ADD PUSH1 0xE0 ADD MSTORE DUP3 ADD PUSH2 0x1E25 JUMP JUMPDEST POP PUSH1 0x0 PUSH1 0xE0 DUP3 DUP7 ADD ADD MSTORE PUSH1 0xE0 PUSH1 0x1F NOT PUSH1 0x1F DUP4 ADD AND DUP6 ADD ADD SWAP3 POP POP POP DUP6 PUSH1 0x40 DUP4 ADD MSTORE DUP5 PUSH1 0x60 DUP4 ADD MSTORE DUP4 PUSH1 0x80 DUP4 ADD MSTORE PUSH2 0x1E7C PUSH1 0xA0 DUP4 ADD DUP5 ISZERO ISZERO SWAP1 MSTORE JUMP JUMPDEST SWAP8 SWAP7 POP POP POP POP POP POP POP JUMP JUMPDEST PUSH1 0x0 DUP1 PUSH1 0x0 PUSH1 0x40 DUP5 DUP7 SUB SLT ISZERO PUSH2 0x1E9C JUMPI PUSH1 0x0 DUP1 REVERT JUMPDEST DUP4 CALLDATALOAD SWAP3 POP PUSH1 0x20 DUP5 ADD CALLDATALOAD PUSH8 0xFFFFFFFFFFFFFFFF DUP2 GT ISZERO PUSH2 0x1EBA JUMPI PUSH1 0x0 DUP1 REVERT JUMPDEST PUSH2 0x1EC6 DUP7 DUP3 DUP8 ADD PUSH2 0x1D62 JUMP JUMPDEST SWAP5 SWAP8 SWAP1 SWAP7 POP SWAP4 SWAP5 POP POP POP POP JUMP JUMPDEST PUSH1 0x0 DUP1 PUSH1 0x40 DUP4 DUP6 SUB SLT ISZERO PUSH2 0x1EE6 JUMPI PUSH1 0x0 DUP1 REVERT JUMPDEST PUSH2 0x1EEF DUP4 PUSH2 0x1C8B JUMP JUMPDEST SWAP2 POP PUSH1 0x20 DUP4 ADD CALLDATALOAD DUP1 ISZERO ISZERO DUP2 EQ PUSH2 0x1F04 JUMPI PUSH1 0x0 DUP1 REVERT JUMPDEST DUP1 SWAP2 POP POP SWAP3 POP SWAP3 SWAP1 POP JUMP JUMPDEST PUSH1 0x20 DUP1 DUP3 MSTORE PUSH1 0x11 SWAP1 DUP3 ADD MSTORE PUSH17 0x4E6F7420617574686F72697A6564204149 PUSH1 0x78 SHL PUSH1 0x40 DUP3 ADD MSTORE PUSH1 0x60 ADD SWAP1 JUMP JUMPDEST PUSH1 0x20 DUP1 DUP3 MSTORE PUSH1 0x13 SWAP1 DUP3 ADD MSTORE PUSH19 0x5374726174656779206E6F7420616374697665 PUSH1 0x68 SHL PUSH1 0x40 DUP3 ADD MSTORE PUSH1 0x60 ADD SWAP1 JUMP JUMPDEST PUSH4 0x4E487B71 PUSH1 0xE0 SHL PUSH1 0x0 MSTORE PUSH1 0x11 PUSH1 0x4 MSTORE PUSH1 0x24 PUSH1 0x0 REVERT JUMPDEST DUP1 DUP3 ADD DUP1 DUP3 GT ISZERO PUSH2 0x1AB7 JUMPI PUSH2 0x1AB7 PUSH2 0x1F67 JUMP JUMPDEST DUP1 DUP3 MUL DUP2 ISZERO DUP3 DUP3 DIV DUP5 EQ OR PUSH2 0x1AB7 JUMPI PUSH2 0x1AB7 PUSH2 0x1F67 JUMP JUMPDEST PUSH1 0x0 DUP3 PUSH2 0x1FC4 JUMPI PUSH4 0x4E487B71 PUSH1 0xE0 SHL PUSH1 0x0 MSTORE PUSH1 0x12 PUSH1 0x4 MSTORE PUSH1 0x24 PUSH1 0x0 REVERT JUMPDEST POP DIV SWAP1 JUMP JUMPDEST DUP2 DUP2 SUB DUP2 DUP2 GT ISZERO PUSH2 0x1AB7 JUMPI PUSH2 0x1AB7 PUSH2 0x1F67 JUMP JUMPDEST PUSH4 0x4E487B71 PUSH1 0xE0 SHL PUSH1 0x0 MSTORE PUSH1 0x32 PUSH1 0x4 MSTORE PUSH1 0x24 PUSH1 0x0 REVERT JUMPDEST PUSH1 0x0 PUSH1 0x1 DUP3 ADD PUSH2 0x2004 JUMPI PUSH2 0x2004 PUSH2 0x1F67 JUMP JUMPDEST POP PUSH1 0x1 ADD SWAP1 JUMP JUMPDEST PUSH4 0x4E487B71 PUSH1 0xE0 SHL PUSH1 0x0 MSTORE PUSH1 0x31 PUSH1 0x4 MSTORE PUSH1 0x24 PUSH1 0x0 REVERT JUMPDEST PUSH4 0x4E487B71 PUSH1 0xE0 SHL PUSH1 0x0 MSTORE PUSH1 0x41 PUSH1 0x4 MSTORE PUSH1 0x24 PUSH1 0x0 REVERT JUMPDEST PUSH1 0x1 DUP2 DUP2 SHR SWAP1 DUP3 AND DUP1 PUSH2 0x204B JUMPI PUSH1 0x7F DUP3 AND SWAP2 POP JUMPDEST PUSH1 0x20 DUP3 LT DUP2 SUB PUSH2 0x206B JUMPI PUSH4 0x4E487B71 PUSH1 0xE0 SHL PUSH1 0x0 MSTORE PUSH1 0x22 PUSH1 0x4 MSTORE PUSH1 0x24 PUSH1 0x0 REVERT JUMPDEST POP SWAP2 SWAP1 POP JUMP JUMPDEST PUSH1 0x1F DUP3 GT ISZERO PUSH2 0x8C3 JUMPI PUSH1 0x0 DUP2 DUP2 MSTORE PUSH1 0x20 DUP2 KECCAK256 PUSH1 0x1F DUP6 ADD PUSH1 0x5 SHR DUP2 ADD PUSH1 0x20 DUP7 LT ISZERO PUSH2 0x2098 JUMPI POP DUP1 JUMPDEST PUSH1 0x1F DUP6 ADD PUSH1 0x5 SHR DUP3 ADD SWAP2 POP JUMPDEST DUP2 DUP2 LT ISZERO PUSH2 0x20B7 JUMPI DUP3 DUP2 SSTORE PUSH1 0x1 ADD PUSH2 0x20A4 JUMP JUMPDEST POP POP POP POP POP POP JUMP JUMPDEST DUP2 MLOAD PUSH8 0xFFFFFFFFFFFFFFFF DUP2 GT ISZERO PUSH2 0x20D9 JUMPI PUSH2 0x20D9 PUSH2 0x2021 JUMP JUMPDEST PUSH2 0x20ED DUP2 PUSH2 0x20E7 DUP5 SLOAD PUSH2 0x2037 JUMP JUMPDEST DUP5 PUSH2 0x2071 JUMP JUMPDEST PUSH1 0x20 DUP1 PUSH1 0x1F DUP4 GT PUSH1 0x1 DUP2 EQ PUSH2 0x2122 JUMPI PUSH1 0x0 DUP5 ISZERO PUSH2 0x210A JUMPI POP DUP6 DUP4 ADD MLOAD JUMPDEST PUSH1 0x0 NOT PUSH1 0x3 DUP7 SWAP1 SHL SHR NOT AND PUSH1 0x1 DUP6 SWAP1 SHL OR DUP6 SSTORE PUSH2 0x20B7 JUMP JUMPDEST PUSH1 0x0 DUP6 DUP2 MSTORE PUSH1 0x20 DUP2 KECCAK256 PUSH1 0x1F NOT DUP7 AND SWAP2 JUMPDEST DUP3 DUP2 LT ISZERO PUSH2 0x2151 JUMPI DUP9 DUP7 ADD MLOAD DUP3 SSTORE SWAP5 DUP5 ADD SWAP5 PUSH1 0x1 SWAP1 SWAP2 ADD SWAP1 DUP5 ADD PUSH2 0x2132 JUMP JUMPDEST POP DUP6 DUP3 LT ISZERO PUSH2 0x216F JUMPI DUP8 DUP6 ADD MLOAD PUSH1 0x0 NOT PUSH1 0x3 DUP9 SWAP1 SHL PUSH1 0xF8 AND SHR NOT AND DUP2 SSTORE JUMPDEST POP POP POP POP POP PUSH1 0x1 SWAP1 DUP2 SHL ADD SWAP1 SSTORE POP JUMP JUMPDEST DUP2 DUP4 MSTORE DUP2 DUP2 PUSH1 0x20 DUP6 ADD CALLDATACOPY POP PUSH1 0x0 DUP3 DUP3 ADD PUSH1 0x20 SWAP1 DUP2 ADD SWAP2 SWAP1 SWAP2 MSTORE PUSH1 0x1F SWAP1 SWAP2 ADD PUSH1 0x1F NOT AND SWAP1 SWAP2 ADD ADD SWAP1 JUMP JUMPDEST PUSH1 0x1 PUSH1 0x1 PUSH1 0xA0 SHL SUB DUP5 AND DUP2 MSTORE PUSH1 0x40 PUSH1 0x20 DUP3 ADD DUP2 SWAP1 MSTORE PUSH1 0x0 SWAP1 PUSH2 0x21CD SWAP1 DUP4 ADD DUP5 DUP7 PUSH2 0x217F JUMP JUMPDEST SWAP6 SWAP5 POP POP POP POP POP JUMP JUMPDEST DUP4 DUP2 MSTORE PUSH1 0x40 PUSH1 0x20 DUP3 ADD MSTORE PUSH1 0x0 PUSH2 0x21CD PUSH1 0x40 DUP4 ADD DUP5 DUP7 PUSH2 0x217F JUMP INVALID 0xCD 0x5E 0xD1 0x5C PUSH15 0x187E77E9AEE88184C21F4F2182AB58 0x27 0xCB EXTCODESIZE PUSH31 0x7FBEDCD63F033009B779B17422D0DF92223018B32B4D1FA46E071723D6817 0xE2 BASEFEE PUSH14 0x3BECC55F00A264697066735822 SLT KECCAK256 0x49 PUSH31 0xADAF46036067FB56879609DAC5CB4C9DE7060454DF81A263D21A4B9683B664 PUSH20 0x6F6C634300081400330000000000000000000000 "},"methodIdentifiers":{"MAX_PROTOCOL_ALLOCATION()":"c29c945b","MIN_YIELD_THRESHOLD()":"ef68596a","REBALANCE_THRESHOLD()":"c85b967d","activeStrategies(uint256)":"b20b2429","addSupportedToken(address)":"6d69fcaf","authorizeAI(address,bool)":"b4986922","authorizedAI(address)":"9e32aaa3","createStrategy(address,address,uint256)":"4be8f2dd","deposit(address,uint256)":"47e7ef24","emergencyExit(bytes32,string)":"b4724298","executeStrategy(bytes32,uint256)":"3d7e1288","getProtocolAllocation(address)":"bb25f394","getStrategy(bytes32)":"28c84bbd","getUserPosition(address)":"5b7c2dad","initialize(address,uint256,uint256)":"7a1ac61e","isTokenSupported(address)":"75151b63","managementFee()":"a6f7f5d6","owner()":"8da5cb5b","pause()":"8456cb59","paused()":"5c975abb","performanceFee()":"87788782","rebalanceStrategy(bytes32,uint256)":"3f31cf3e","removeSupportedToken(address)":"76319190","renounceOwnership()":"715018a6","strategies(bytes32)":"3ff34eb9","supportedTokens(uint256)":"c6255626","totalAssets()":"01e1d114","transferOwnership(address)":"f2fde38b","unpause()":"3f4ba83a","updateStrategyYield(bytes32,uint256)":"e3908fdb","userPositions(address)":"613cf420","whitelistProtocol(address,string,uint256)":"7e632ef2","whitelistedProtocols(address)":"84361c07","withdraw(address,uint256)":"f3fef3a3"}},"storageLayout":{"storage":[{"astId":2908,"contract":"contracts/YieldOptimizer.sol:YieldOptimizer","label":"strategies","offset":0,"slot":"0","type":"t_mapping(t_bytes32,t_struct(Strategy)2877_storage)"},{"astId":2913,"contract":"contracts/YieldOptimizer.sol:YieldOptimizer","label":"whitelistedProtocols","offset":0,"slot":"1","type":"t_mapping(t_address,t_struct(ProtocolInfo)2890_storage)"},{"astId":2918,"contract":"contracts/YieldOptimizer.sol:YieldOptimizer","label":"userPositions","offset":0,"slot":"2","type":"t_mapping(t_address,t_struct(UserPosition)2903_storage)"},{"astId":2922,"contract":"contracts/YieldOptimizer.sol:YieldOptimizer","label":"authorizedAI","offset":0,"slot":"3","type":"t_mapping(t_address,t_bool)"},{"astId":2925,"contract":"contracts/YieldOptimizer.sol:YieldOptimizer","label":"activeStrategies","offset":0,"slot":"4","type":"t_array(t_bytes32)dyn_storage"},{"astId":2928,"contract":"contracts/YieldOptimizer.sol:YieldOptimizer","label":"supportedTokens","offset":0,"slot":"5","type":"t_array(t_address)dyn_storage"},{"astId":2939,"contract":"contracts/YieldOptimizer.sol:YieldOptimizer","label":"totalAssets","offset":0,"slot":"6","type":"t_uint256"},{"astId":2941,"contract":"contracts/YieldOptimizer.sol:YieldOptimizer","label":"performanceFee","offset":0,"slot":"7","type":"t_uint256"},{"astId":2943,"contract":"contracts/YieldOptimizer.sol:YieldOptimizer","label":"managementFee","offset":0,"slot":"8","type":"t_uint256"}],"types":{"t_address":{"encoding":"inplace","label":"address","numberOfBytes":"20"},"t_array(t_address)dyn_storage":{"base":"t_address","encoding":"dynamic_array","label":"address[]","numberOfBytes":"32"},"t_array(t_bytes32)dyn_storage":{"base":"t_bytes32","encoding":"dynamic_array","label":"bytes32[]","numberOfBytes":"32"},"t_bool":{"encoding":"inplace","label":"bool","numberOfBytes":"1"},"t_bytes32":{"encoding":"inplace","label":"bytes32","numberOfBytes":"32"},"t_mapping(t_address,t_bool)":{"encoding":"mapping","key":"t_address","label":"mapping(address => bool)","numberOfBytes":"32","value":"t_bool"},"t_mapping(t_address,t_struct(ProtocolInfo)2890_storage)":{"encoding":"mapping","key":"t_address","label":"mapping(address => struct YieldOptimizer.ProtocolInfo)","numberOfBytes":"32","value":"t_struct(ProtocolInfo)2890_storage"},"t_mapping(t_address,t_struct(UserPosition)2903_storage)":{"encoding":"mapping","key":"t_address","label":"mapping(address => struct YieldOptimizer.UserPosition)","numberOfBytes":"32","value":"t_struct(UserPosition)2903_storage"},"t_mapping(t_bytes32,t_struct(Strategy)2877_storage)":{"encoding":"mapping","key":"t_bytes32","label":"mapping(bytes32 => struct YieldOptimizer.Strategy)","numberOfBytes":"32","value":"t_struct(Strategy)2877_storage"},"t_mapping(t_bytes32,t_uint256)":{"encoding":"mapping","key":"t_bytes32","label":"mapping(bytes32 => uint256)","numberOfBytes":"32","value":"t_uint256"},"t_string_storage":{"encoding":"bytes","label":"string","numberOfBytes":"32"},"t_struct(ProtocolInfo)2890_storage":{"encoding":"inplace","label":"struct YieldOptimizer.ProtocolInfo","members":[{"astId":2879,"contract":"contracts/YieldOptimizer.sol:YieldOptimizer","label":"protocolAddress","offset":0,"slot":"0","type":"t_address"},{"astId":2881,"contract":"contracts/YieldOptimizer.sol:YieldOptimizer","label":"name","offset":0,"slot":"1","type":"t_string_storage"},{"astId":2883,"contract":"contracts/YieldOptimizer.sol:YieldOptimizer","label":"tvl","offset":0,"slot":"2","type":"t_uint256"},{"astId":2885,"contract":"contracts/YieldOptimizer.sol:YieldOptimizer","label":"apy","offset":0,"slot":"3","type":"t_uint256"},{"astId":2887,"contract":"contracts/YieldOptimizer.sol:YieldOptimizer","label":"riskScore","offset":0,"slot":"4","type":"t_uint256"},{"astId":2889,"contract":"contracts/YieldOptimizer.sol:YieldOptimizer","label":"isWhitelisted","offset":0,"slot":"5","type":"t_bool"}],"numberOfBytes":"192"},"t_struct(Strategy)2877_storage":{"encoding":"inplace","label":"struct YieldOptimizer.Strategy","members":[{"astId":2864,"contract":"contracts/YieldOptimizer.sol:YieldOptimizer","label":"protocol","offset":0,"slot":"0","type":"t_address"},{"astId":2866,"contract":"contracts/YieldOptimizer.sol:YieldOptimizer","label":"token","offset":0,"slot":"1","type":"t_address"},{"astId":2868,"contract":"contracts/YieldOptimizer.sol:YieldOptimizer","label":"allocatedAmount","offset":0,"slot":"2","type":"t_uint256"},{"astId":2870,"contract":"contracts/YieldOptimizer.sol:YieldOptimizer","label":"currentYield","offset":0,"slot":"3","type":"t_uint256"},{"astId":2872,"contract":"contracts/YieldOptimizer.sol:YieldOptimizer","label":"riskScore","offset":0,"slot":"4","type":"t_uint256"},{"astId":2874,"contract":"contracts/YieldOptimizer.sol:YieldOptimizer","label":"lastRebalance","offset":0,"slot":"5","type":"t_uint256"},{"astId":2876,"contract":"contracts/YieldOptimizer.sol:YieldOptimizer","label":"isActive","offset":0,"slot":"6","type":"t_bool"}],"numberOfBytes":"224"},"t_struct(UserPosition)2903_storage":{"encoding":"inplace","label":"struct YieldOptimizer.UserPosition","members":[{"astId":2892,"contract":"contracts/YieldOptimizer.sol:YieldOptimizer","label":"totalDeposited","offset":0,"slot":"0","type":"t_uint256"},{"astId":2894,"contract":"contracts/YieldOptimizer.sol:YieldOptimizer","label":"currentValue","offset":0,"slot":"1","type":"t_uint256"},{"astId":2896,"contract":"contracts/YieldOptimizer.sol:YieldOptimizer","label":"pendingRewards","offset":0,"slot":"2","type":"t_uint256"},{"astId":2898,"contract":"contracts/YieldOptimizer.sol:YieldOptimizer","label":"lastUpdate","offset":0,"slot":"3","type":"t_uint256"},{"astId":2902,"contract":"contracts/YieldOptimizer.sol:YieldOptimizer","label":"strategyAllocations","offset":0,"slot":"4","type":"t_mapping(t_bytes32,t_uint256)"}],"numberOfBytes":"160"},"t_uint256":{"encoding":"inplace","label":"uint256","numberOfBytes":"32"}}}}}}