{
  "_format": "hh-sol-artifact-1",
  "contractName": "StrategyManager",
  "sourceName": "contracts/StrategyManager.sol",
  "abi": [
    {
      "inputs": [
        {
          "internalType": "address",
          "name": "_yieldOptimizer",
          "type": "address"
        }
      ],
      "stateMutability": "nonpayable",
      "type": "constructor"
    },
    {
      "inputs": [
        {
          "internalType": "address",
          "name": "owner",
          "type": "address"
        }
      ],
      "name": "OwnableInvalidOwner",
      "type": "error"
    },
    {
      "inputs": [
        {
          "internalType": "address",
          "name": "account",
          "type": "address"
        }
      ],
      "name": "OwnableUnauthorizedAccount",
      "type": "error"
    },
    {
      "inputs": [],
      "name": "ReentrancyGuardReentrantCall",
      "type": "error"
    },
    {
      "inputs": [
        {
          "internalType": "address",
          "name": "token",
          "type": "address"
        }
      ],
      "name": "SafeERC20FailedOperation",
      "type": "error"
    },
    {
      "anonymous": false,
      "inputs": [
        {
          "indexed": false,
          "internalType": "address",
          "name": "protocol",
          "type": "address"
        },
        {
          "indexed": false,
          "internalType": "address",
          "name": "token",
          "type": "address"
        },
        {
          "indexed": false,
          "internalType": "uint256",
          "name": "amount",
          "type": "uint256"
        }
      ],
      "name": "EmergencyWithdraw",
      "type": "event"
    },
    {
      "anonymous": false,
      "inputs": [
        {
          "indexed": true,
          "internalType": "address",
          "name": "previousOwner",
          "type": "address"
        },
        {
          "indexed": true,
          "internalType": "address",
          "name": "newOwner",
          "type": "address"
        }
      ],
      "name": "OwnershipTransferred",
      "type": "event"
    },
    {
      "anonymous": false,
      "inputs": [
        {
          "indexed": false,
          "internalType": "address",
          "name": "protocol",
          "type": "address"
        },
        {
          "indexed": false,
          "internalType": "address",
          "name": "adapter",
          "type": "address"
        }
      ],
      "name": "ProtocolAdapterAdded",
      "type": "event"
    },
    {
      "anonymous": false,
      "inputs": [
        {
          "indexed": true,
          "internalType": "bytes32",
          "name": "strategyId",
          "type": "bytes32"
        },
        {
          "indexed": false,
          "internalType": "address",
          "name": "protocol",
          "type": "address"
        },
        {
          "indexed": false,
          "internalType": "uint256",
          "name": "amount",
          "type": "uint256"
        },
        {
          "indexed": false,
          "internalType": "uint256",
          "name": "actualReturn",
          "type": "uint256"
        }
      ],
      "name": "StrategyExecuted",
      "type": "event"
    },
    {
      "anonymous": false,
      "inputs": [
        {
          "indexed": true,
          "internalType": "bytes32",
          "name": "strategyId",
          "type": "bytes32"
        },
        {
          "indexed": false,
          "internalType": "string",
          "name": "reason",
          "type": "string"
        }
      ],
      "name": "StrategyReverted",
      "type": "event"
    },
    {
      "inputs": [],
      "name": "SLIPPAGE_TOLERANCE",
      "outputs": [
        {
          "internalType": "uint256",
          "name": "",
          "type": "uint256"
        }
      ],
      "stateMutability": "view",
      "type": "function"
    },
    {
      "inputs": [
        {
          "components": [
            {
              "internalType": "address",
              "name": "protocol",
              "type": "address"
            },
            {
              "internalType": "address",
              "name": "token",
              "type": "address"
            },
            {
              "internalType": "uint256",
              "name": "amount",
              "type": "uint256"
            },
            {
              "internalType": "bytes",
              "name": "data",
              "type": "bytes"
            },
            {
              "internalType": "uint256",
              "name": "minReturn",
              "type": "uint256"
            },
            {
              "internalType": "uint256",
              "name": "deadline",
              "type": "uint256"
            }
          ],
          "internalType": "struct StrategyManager.ExecutionParams",
          "name": "params",
          "type": "tuple"
        }
      ],
      "name": "_executeProtocolInteraction",
      "outputs": [
        {
          "internalType": "uint256",
          "name": "",
          "type": "uint256"
        }
      ],
      "stateMutability": "nonpayable",
      "type": "function"
    },
    {
      "inputs": [
        {
          "internalType": "address",
          "name": "protocol",
          "type": "address"
        },
        {
          "internalType": "address",
          "name": "adapter",
          "type": "address"
        },
        {
          "internalType": "string",
          "name": "protocolName",
          "type": "string"
        }
      ],
      "name": "addProtocolAdapter",
      "outputs": [],
      "stateMutability": "nonpayable",
      "type": "function"
    },
    {
      "inputs": [
        {
          "internalType": "uint256",
          "name": "amount",
          "type": "uint256"
        }
      ],
      "name": "calculateExecutionCost",
      "outputs": [
        {
          "internalType": "uint256",
          "name": "",
          "type": "uint256"
        }
      ],
      "stateMutability": "view",
      "type": "function"
    },
    {
      "inputs": [
        {
          "internalType": "address",
          "name": "protocol",
          "type": "address"
        },
        {
          "internalType": "address",
          "name": "token",
          "type": "address"
        }
      ],
      "name": "emergencyWithdraw",
      "outputs": [],
      "stateMutability": "nonpayable",
      "type": "function"
    },
    {
      "inputs": [
        {
          "components": [
            {
              "internalType": "address",
              "name": "protocol",
              "type": "address"
            },
            {
              "internalType": "address",
              "name": "token",
              "type": "address"
            },
            {
              "internalType": "uint256",
              "name": "amount",
              "type": "uint256"
            },
            {
              "internalType": "bytes",
              "name": "data",
              "type": "bytes"
            },
            {
              "internalType": "uint256",
              "name": "minReturn",
              "type": "uint256"
            },
            {
              "internalType": "uint256",
              "name": "deadline",
              "type": "uint256"
            }
          ],
          "internalType": "struct StrategyManager.ExecutionParams",
          "name": "params",
          "type": "tuple"
        }
      ],
      "name": "executeStrategy",
      "outputs": [
        {
          "internalType": "uint256",
          "name": "actualReturn",
          "type": "uint256"
        }
      ],
      "stateMutability": "nonpayable",
      "type": "function"
    },
    {
      "inputs": [
        {
          "internalType": "bytes32",
          "name": "",
          "type": "bytes32"
        }
      ],
      "name": "executedStrategies",
      "outputs": [
        {
          "internalType": "bool",
          "name": "",
          "type": "bool"
        }
      ],
      "stateMutability": "view",
      "type": "function"
    },
    {
      "inputs": [],
      "name": "executionFee",
      "outputs": [
        {
          "internalType": "uint256",
          "name": "",
          "type": "uint256"
        }
      ],
      "stateMutability": "view",
      "type": "function"
    },
    {
      "inputs": [
        {
          "internalType": "address",
          "name": "protocol",
          "type": "address"
        }
      ],
      "name": "getProtocolInfo",
      "outputs": [
        {
          "internalType": "address",
          "name": "adapterAddress",
          "type": "address"
        },
        {
          "internalType": "string",
          "name": "protocolName",
          "type": "string"
        },
        {
          "internalType": "bool",
          "name": "isActive",
          "type": "bool"
        },
        {
          "internalType": "uint256",
          "name": "totalAllocated",
          "type": "uint256"
        },
        {
          "internalType": "uint256",
          "name": "averageAPY",
          "type": "uint256"
        }
      ],
      "stateMutability": "view",
      "type": "function"
    },
    {
      "inputs": [],
      "name": "getSupportedProtocols",
      "outputs": [
        {
          "internalType": "address[]",
          "name": "",
          "type": "address[]"
        }
      ],
      "stateMutability": "view",
      "type": "function"
    },
    {
      "inputs": [],
      "name": "owner",
      "outputs": [
        {
          "internalType": "address",
          "name": "",
          "type": "address"
        }
      ],
      "stateMutability": "view",
      "type": "function"
    },
    {
      "inputs": [
        {
          "internalType": "address",
          "name": "",
          "type": "address"
        }
      ],
      "name": "protocolAdapters",
      "outputs": [
        {
          "internalType": "address",
          "name": "adapterAddress",
          "type": "address"
        },
        {
          "internalType": "string",
          "name": "protocolName",
          "type": "string"
        },
        {
          "internalType": "bool",
          "name": "isActive",
          "type": "bool"
        },
        {
          "internalType": "uint256",
          "name": "totalAllocated",
          "type": "uint256"
        },
        {
          "internalType": "uint256",
          "name": "averageAPY",
          "type": "uint256"
        }
      ],
      "stateMutability": "view",
      "type": "function"
    },
    {
      "inputs": [],
      "name": "renounceOwnership",
      "outputs": [],
      "stateMutability": "nonpayable",
      "type": "function"
    },
    {
      "inputs": [
        {
          "internalType": "uint256",
          "name": "_executionFee",
          "type": "uint256"
        }
      ],
      "name": "setExecutionFee",
      "outputs": [],
      "stateMutability": "nonpayable",
      "type": "function"
    },
    {
      "inputs": [
        {
          "internalType": "address",
          "name": "protocol",
          "type": "address"
        },
        {
          "internalType": "bool",
          "name": "status",
          "type": "bool"
        }
      ],
      "name": "setProtocolStatus",
      "outputs": [],
      "stateMutability": "nonpayable",
      "type": "function"
    },
    {
      "inputs": [
        {
          "internalType": "uint256",
          "name": "",
          "type": "uint256"
        }
      ],
      "name": "supportedProtocols",
      "outputs": [
        {
          "internalType": "address",
          "name": "",
          "type": "address"
        }
      ],
      "stateMutability": "view",
      "type": "function"
    },
    {
      "inputs": [
        {
          "internalType": "address",
          "name": "newOwner",
          "type": "address"
        }
      ],
      "name": "transferOwnership",
      "outputs": [],
      "stateMutability": "nonpayable",
      "type": "function"
    },
    {
      "inputs": [
        {
          "internalType": "address",
          "name": "protocol",
          "type": "address"
        },
        {
          "internalType": "uint256",
          "name": "newAPY",
          "type": "uint256"
        }
      ],
      "name": "updateProtocolAPY",
      "outputs": [],
      "stateMutability": "nonpayable",
      "type": "function"
    },
    {
      "inputs": [
        {
          "internalType": "address",
          "name": "protocol",
          "type": "address"
        },
        {
          "internalType": "address",
          "name": "token",
          "type": "address"
        },
        {
          "internalType": "uint256",
          "name": "amount",
          "type": "uint256"
        }
      ],
      "name": "withdrawFromProtocol",
      "outputs": [
        {
          "internalType": "uint256",
          "name": "actualAmount",
          "type": "uint256"
        }
      ],
      "stateMutability": "nonpayable",
      "type": "function"
    },
    {
      "inputs": [],
      "name": "yieldOptimizer",
      "outputs": [
        {
          "internalType": "address",
          "name": "",
          "type": "address"
        }
      ],
      "stateMutability": "view",
      "type": "function"
    }
  ],
  "bytecode": "0x60806040523480156200001157600080fd5b5060405162001ea138038062001ea18339810160408190526200003491620000e6565b33806200005b57604051631e4fbdf760e01b81526000600482015260240160405180910390fd5b620000668162000096565b5060018055600480546001600160a01b0319166001600160a01b0392909216919091179055603260065562000118565b600080546001600160a01b038381166001600160a01b0319831681178455604051919092169283917f8be0079c531659141344cd1fd0a4f28419497f9722a3daafe3b4186f6b6457e09190a35050565b600060208284031215620000f957600080fd5b81516001600160a01b03811681146200011157600080fd5b9392505050565b611d7980620001286000396000f3fe608060405234801561001057600080fd5b506004361061012c5760003560e01c8063715018a6116100ad578063c7ec197c11610071578063c7ec197c1461028c578063d2c7912d1461029f578063defadfc3146102b2578063e881978f146102c5578063f2fde38b146102d857600080fd5b8063715018a61461023a5780637b4cab3d146102425780638a201238146102555780638da5cb5b146102685780638e700fd81461027957600080fd5b80634c203786116100f45780634c203786146101ac578063532913a5146101b457806363114397146101c95780636382d9ad146101fc57806368e84aef1461020f57600080fd5b806303c490061461013157806328934c6f146101575780633655c6471461016a57806337a063d21461018e57806340e9903b146101a3575b600080fd5b61014461013f36600461161c565b6102eb565b6040519081526020015b60405180910390f35b61014461016536600461161c565b610778565b61017d61017836600461167a565b6108f6565b60405161014e9594939291906116e5565b6101a161019c366004611726565b6109bd565b005b61014460065481565b610144606481565b6101bc610a0b565b60405161014e919061173f565b6101ec6101d7366004611726565b60036020526000908152604090205460ff1681565b604051901515815260200161014e565b6101a161020a36600461178c565b610a6d565b61022261021d366004611726565b610d40565b6040516001600160a01b03909116815260200161014e565b6101a1610d6a565b600454610222906001600160a01b031681565b61017d61026336600461167a565b610d7e565b6000546001600160a01b0316610222565b6101a16102873660046117bf565b610e68565b6101a161029a36600461184d565b611036565b6101446102ad366004611889565b61106d565b6101446102c0366004611726565b611270565b6101a16102d33660046118c5565b611293565b6101a16102e636600461167a565b6112ba565b6004546000906001600160a01b0316331461034d5760405162461bcd60e51b815260206004820152601c60248201527f4f6e6c79205969656c644f7074696d697a65722063616e2063616c6c0000000060448201526064015b60405180910390fd5b61035a602083018361167a565b6001600160a01b0381166000908152600260208190526040909120015460ff166103965760405162461bcd60e51b8152600401610344906118ef565b61039e6112f8565b60008360400135116103e35760405162461bcd60e51b815260206004820152600e60248201526d125b9d985b1a5908185b5bdd5b9d60921b6044820152606401610344565b428360a0013510156104375760405162461bcd60e51b815260206004820152601960248201527f457865637574696f6e20646561646c696e6520706173736564000000000000006044820152606401610344565b6000610446602085018561167a565b610456604086016020870161167a565b604080516bffffffffffffffffffffffff19606094851b811660208301529290931b9091166034830152850135604882015242606882015260880160408051601f1981840301815291815281516020928301206000818152600390935291205490915060ff16156105095760405162461bcd60e51b815260206004820152601960248201527f537472617465677920616c7265616479206578656375746564000000000000006044820152606401610344565b60045461053f906001600160a01b0316306040870180359061052e9060208a0161167a565b6001600160a01b0316929190611322565b6040516328934c6f60e01b815230906328934c6f90610562908790600401611948565b6020604051808303816000875af192505050801561059d575060408051601f3d908101601f1916820190925261059a918101906119fd565b60015b61065a576105a9611a16565b806308c379a00361064e57506105bd611a75565b806105c85750610650565b6004546105fc906001600160a01b0316604087018035906105ec9060208a0161167a565b6001600160a01b0316919061138f565b817fab75fb2b8ab2bf14d615c1a2416d5f1a526536ae94f6943f19409da2138f1f8f8260405161062c9190611aff565b60405180910390a28060405162461bcd60e51b81526004016103449190611aff565b505b3d6000803e3d6000fd5b80935084608001358410156106a75760405162461bcd60e51b815260206004820152601360248201527224b739bab33334b1b4b2b73a103932ba3ab93760691b6044820152606401610344565b6000828152600360209081526040808320805460ff19166001179055870135916002916106d69089018961167a565b6001600160a01b03166001600160a01b0316815260200190815260200160002060030160008282546107089190611b28565b909155508290507f57fe4e11f1f26fb5f03d031e487a99a5f760d8d04d8e2544600ad508f15112e861073d602088018861167a565b604080516001600160a01b039092168252808901356020830152810187905260600160405180910390a2505061077260018055565b50919050565b60003330146107bd5760405162461bcd60e51b815260206004820152601160248201527024b73a32b93730b610333ab731ba34b7b760791b6044820152606401610344565b60006002816107cf602086018661167a565b6001600160a01b0390811682526020808301939093526040918201600020805490945061081a93911691860180359161080a9190880161167a565b6001600160a01b031691906113c5565b805460009081906001600160a01b03166108376060870187611b3b565b604051610845929190611b89565b6000604051808303816000865af19150503d8060008114610882576040519150601f19603f3d011682016040523d82523d6000602084013e610887565b606091505b5091509150816108d95760405162461bcd60e51b815260206004820152601b60248201527f50726f746f636f6c20696e746572616374696f6e206661696c656400000000006044820152606401610344565b808060200190518101906108ed91906119fd565b95945050505050565b600260205260009081526040902080546001820180546001600160a01b03909216929161092290611b99565b80601f016020809104026020016040519081016040528092919081815260200182805461094e90611b99565b801561099b5780601f106109705761010080835404028352916020019161099b565b820191906000526020600020905b81548152906001019060200180831161097e57829003601f168201915b5050505060028301546003840154600490940154929360ff9091169290915085565b6109c561144f565b6103e8811115610a065760405162461bcd60e51b815260206004820152600c60248201526b08ccaca40e8dede40d0d2ced60a31b6044820152606401610344565b600655565b60606005805480602002602001604051908101604052809291908181526020018280548015610a6357602002820191906000526020600020905b81546001600160a01b03168152600190910190602001808311610a45575b5050505050905090565b610a7561144f565b6001600160a01b03821660009081526002602081905260409091200154829060ff16610ab35760405162461bcd60e51b8152600401610344906118ef565b6001600160a01b03838116600090815260026020526040808220905192851660248401529160440160408051601f198184030181529181526020820180516001600160e01b031663f8b2cb4f60e01b1790528354905191925060009182916001600160a01b031690610b26908590611bcd565b6000604051808303816000865af19150503d8060008114610b63576040519150601f19603f3d011682016040523d82523d6000602084013e610b68565b606091505b509150915081610bb25760405162461bcd60e51b81526020600482015260156024820152744661696c656420746f206765742062616c616e636560581b6044820152606401610344565b600081806020019051810190610bc891906119fd565b90508015610d36576040516001600160a01b038816602482015260009060440160408051601f198184030181529181526020820180516001600160e01b0316631bfc726f60e21b179052875490519192506001600160a01b031690610c2e908390611bcd565b6000604051808303816000865af19150503d8060008114610c6b576040519150601f19603f3d011682016040523d82523d6000602084013e610c70565b606091505b50508094505083610cc35760405162461bcd60e51b815260206004820152601b60248201527f456d657267656e6379207769746864726177616c206661696c656400000000006044820152606401610344565b610ce9610cd86000546001600160a01b031690565b6001600160a01b038a16908461138f565b604080516001600160a01b03808c1682528a1660208201529081018390527ff24ef89f38eadc1bde50701ad6e4d6d11a2dc24f7cf834a486991f38833285049060600160405180910390a1505b5050505050505050565b60058181548110610d5057600080fd5b6000918252602090912001546001600160a01b0316905081565b610d7261144f565b610d7c600061147c565b565b6001600160a01b03808216600090815260026020819052604082208054918101546003820154600483015460018401805496976060978997889788979096919093169460ff9093169290918490610dd490611b99565b80601f0160208091040260200160405190810160405280929190818152602001828054610e0090611b99565b8015610e4d5780601f10610e2257610100808354040283529160200191610e4d565b820191906000526020600020905b815481529060010190602001808311610e3057829003601f168201915b50505050509350955095509550955095505091939590929450565b610e7061144f565b6001600160a01b03841615801590610e9057506001600160a01b03831615155b610ed05760405162461bcd60e51b8152602060048201526011602482015270496e76616c69642061646472657373657360781b6044820152606401610344565b6040518060a00160405280846001600160a01b0316815260200183838080601f0160208091040260200160405190810160405280939291908181526020018383808284376000920182905250938552505060016020808501829052604080860185905260609095018490526001600160a01b038a811685526002825294909320855181546001600160a01b03191695169490941784559184015191830191610f79915082611c37565b5060408281015160028301805460ff191691151591909117905560608301516003830155608090920151600490910155600580546001810182556000919091527f036b6384b5eca791c62761152d0c79bb0604c104a5fb6f4eb0703f3154bb3db00180546001600160a01b0319166001600160a01b03878116918217909255825190815290851660208201527f0a833c181b468c4112674ae76a9130cf251aeabc0ac830ac4321baf03427dd8d910160405180910390a150505050565b61103e61144f565b6001600160a01b0391909116600090815260026020819052604090912001805460ff1916911515919091179055565b6004546000906001600160a01b031633146110ca5760405162461bcd60e51b815260206004820152601c60248201527f4f6e6c79205969656c644f7074696d697a65722063616e2063616c6c000000006044820152606401610344565b6001600160a01b03841660009081526002602081905260409091200154849060ff166111085760405162461bcd60e51b8152600401610344906118ef565b6111106112f8565b6001600160a01b0385811660009081526002602052604080822090519287166024840152604483018690529160640160408051601f198184030181529181526020820180516001600160e01b031663f3fef3a360e01b1790528354905191925060009182916001600160a01b03169061118a908590611bcd565b6000604051808303816000865af19150503d80600081146111c7576040519150601f19603f3d011682016040523d82523d6000602084013e6111cc565b606091505b5091509150816112125760405162461bcd60e51b815260206004820152601160248201527015da5d1a191c985dd85b0819985a5b1959607a1b6044820152606401610344565b8080602001905181019061122691906119fd565b95508684600301600082825461123c9190611cf7565b909155505060045461125b906001600160a01b038a811691168861138f565b5050505061126860018055565b509392505050565b6000612710600654836112839190611d0a565b61128d9190611d21565b92915050565b61129b61144f565b6001600160a01b03909116600090815260026020526040902060040155565b6112c261144f565b6001600160a01b0381166112ec57604051631e4fbdf760e01b815260006004820152602401610344565b6112f58161147c565b50565b60026001540361131b57604051633ee5aeb560e01b815260040160405180910390fd5b6002600155565b6040516001600160a01b0384811660248301528381166044830152606482018390526113899186918216906323b872dd906084015b604051602081830303815290604052915060e01b6020820180516001600160e01b0383818316178352505050506114cc565b50505050565b6040516001600160a01b038381166024830152604482018390526113c091859182169063a9059cbb90606401611357565b505050565b604051636eb1769f60e11b81523060048201526001600160a01b0383811660248301526000919085169063dd62ed3e90604401602060405180830381865afa158015611415573d6000803e3d6000fd5b505050506040513d601f19601f8201168201806040525081019061143991906119fd565b9050611389848461144a8585611b28565b61153d565b6000546001600160a01b03163314610d7c5760405163118cdaa760e01b8152336004820152602401610344565b600080546001600160a01b038381166001600160a01b0319831681178455604051919092169283917f8be0079c531659141344cd1fd0a4f28419497f9722a3daafe3b4186f6b6457e09190a35050565b600080602060008451602086016000885af1806114ef576040513d6000823e3d81fd5b50506000513d91508115611507578060011415611514565b6001600160a01b0384163b155b1561138957604051635274afe760e01b81526001600160a01b0385166004820152602401610344565b604080516001600160a01b038416602482015260448082018490528251808303909101815260649091019091526020810180516001600160e01b031663095ea7b360e01b17905261158e84826115cd565b611389576040516001600160a01b038481166024830152600060448301526115c391869182169063095ea7b390606401611357565b61138984826114cc565b6000806000806020600086516020880160008a5af192503d91506000519050828015611612575081156116035780600114611612565b6000866001600160a01b03163b115b9695505050505050565b60006020828403121561162e57600080fd5b813567ffffffffffffffff81111561164557600080fd5b820160c0818503121561165757600080fd5b9392505050565b80356001600160a01b038116811461167557600080fd5b919050565b60006020828403121561168c57600080fd5b6116578261165e565b60005b838110156116b0578181015183820152602001611698565b50506000910152565b600081518084526116d1816020860160208601611695565b601f01601f19169290920160200192915050565b6001600160a01b038616815260a060208201819052600090611709908301876116b9565b941515604083015250606081019290925260809091015292915050565b60006020828403121561173857600080fd5b5035919050565b6020808252825182820181905260009190848201906040850190845b818110156117805783516001600160a01b03168352928401929184019160010161175b565b50909695505050505050565b6000806040838503121561179f57600080fd5b6117a88361165e565b91506117b66020840161165e565b90509250929050565b600080600080606085870312156117d557600080fd5b6117de8561165e565b93506117ec6020860161165e565b9250604085013567ffffffffffffffff8082111561180957600080fd5b818701915087601f83011261181d57600080fd5b81358181111561182c57600080fd5b88602082850101111561183e57600080fd5b95989497505060200194505050565b6000806040838503121561186057600080fd5b6118698361165e565b91506020830135801515811461187e57600080fd5b809150509250929050565b60008060006060848603121561189e57600080fd5b6118a78461165e565b92506118b56020850161165e565b9150604084013590509250925092565b600080604083850312156118d857600080fd5b6118e18361165e565b946020939093013593505050565b602080825260169082015275141c9bdd1bd8dbdb081b9bdd081cdd5c1c1bdc9d195960521b604082015260600190565b81835281816020850137506000828201602090810191909152601f909101601f19169091010190565b6020815260006001600160a01b03806119608561165e565b166020840152806119736020860161165e565b16604084015250604083013560608301526060830135601e1984360301811261199b57600080fd5b830160208101903567ffffffffffffffff8111156119b857600080fd5b8036038213156119c757600080fd5b60c060808501526119dc60e08501828461191f565b915050608084013560a084015260a084013560c08401528091505092915050565b600060208284031215611a0f57600080fd5b5051919050565b600060033d1115611a2f5760046000803e5060005160e01c5b90565b634e487b7160e01b600052604160045260246000fd5b601f8201601f1916810167ffffffffffffffff81118282101715611a6e57611a6e611a32565b6040525050565b600060443d1015611a835790565b6040516003193d81016004833e81513d67ffffffffffffffff8160248401118184111715611ab357505050505090565b8285019150815181811115611acb5750505050505090565b843d8701016020828501011115611ae55750505050505090565b611af460208286010187611a48565b509095945050505050565b60208152600061165760208301846116b9565b634e487b7160e01b600052601160045260246000fd5b8082018082111561128d5761128d611b12565b6000808335601e19843603018112611b5257600080fd5b83018035915067ffffffffffffffff821115611b6d57600080fd5b602001915036819003821315611b8257600080fd5b9250929050565b8183823760009101908152919050565b600181811c90821680611bad57607f821691505b60208210810361077257634e487b7160e01b600052602260045260246000fd5b60008251611bdf818460208701611695565b9190910192915050565b601f8211156113c057600081815260208120601f850160051c81016020861015611c105750805b601f850160051c820191505b81811015611c2f57828155600101611c1c565b505050505050565b815167ffffffffffffffff811115611c5157611c51611a32565b611c6581611c5f8454611b99565b84611be9565b602080601f831160018114611c9a5760008415611c825750858301515b600019600386901b1c1916600185901b178555611c2f565b600085815260208120601f198616915b82811015611cc957888601518255948401946001909101908401611caa565b5085821015611ce75787850151600019600388901b60f8161c191681555b5050505050600190811b01905550565b8181038181111561128d5761128d611b12565b808202811582820484141761128d5761128d611b12565b600082611d3e57634e487b7160e01b600052601260045260246000fd5b50049056fea2646970667358221220ae7dbfebfe0301781dd2d2269643efb916004c6a6eb046197ca099dcb37e61ad64736f6c63430008140033",
  "linkReferences": {},
  "deployedLinkReferences": {}
}