{
  "_format": "hh-sol-artifact-1",
  "contractName": "StrategyManager",
  "sourceName": "contracts/StrategyManager.sol",
  "abi": [
    {
      "inputs": [],
      "name": "InvalidInitialization",
      "type": "error"
    },
    {
      "inputs": [],
      "name": "NotInitializing",
      "type": "error"
    },
    {
      "inputs": [
        {
          "internalType": "address",
          "name": "owner",
          "type": "address"
        }
      ],
      "name": "OwnableInvalidOwner",
      "type": "error"
    },
    {
      "inputs": [
        {
          "internalType": "address",
          "name": "account",
          "type": "address"
        }
      ],
      "name": "OwnableUnauthorizedAccount",
      "type": "error"
    },
    {
      "inputs": [],
      "name": "ReentrancyGuardReentrantCall",
      "type": "error"
    },
    {
      "inputs": [
        {
          "internalType": "address",
          "name": "token",
          "type": "address"
        }
      ],
      "name": "SafeERC20FailedOperation",
      "type": "error"
    },
    {
      "anonymous": false,
      "inputs": [
        {
          "indexed": false,
          "internalType": "address",
          "name": "protocol",
          "type": "address"
        },
        {
          "indexed": false,
          "internalType": "address",
          "name": "token",
          "type": "address"
        },
        {
          "indexed": false,
          "internalType": "uint256",
          "name": "amount",
          "type": "uint256"
        }
      ],
      "name": "EmergencyWithdraw",
      "type": "event"
    },
    {
      "anonymous": false,
      "inputs": [
        {
          "indexed": false,
          "internalType": "uint64",
          "name": "version",
          "type": "uint64"
        }
      ],
      "name": "Initialized",
      "type": "event"
    },
    {
      "anonymous": false,
      "inputs": [
        {
          "indexed": true,
          "internalType": "address",
          "name": "previousOwner",
          "type": "address"
        },
        {
          "indexed": true,
          "internalType": "address",
          "name": "newOwner",
          "type": "address"
        }
      ],
      "name": "OwnershipTransferred",
      "type": "event"
    },
    {
      "anonymous": false,
      "inputs": [
        {
          "indexed": false,
          "internalType": "address",
          "name": "protocol",
          "type": "address"
        },
        {
          "indexed": false,
          "internalType": "address",
          "name": "adapter",
          "type": "address"
        }
      ],
      "name": "ProtocolAdapterAdded",
      "type": "event"
    },
    {
      "anonymous": false,
      "inputs": [
        {
          "indexed": true,
          "internalType": "bytes32",
          "name": "strategyId",
          "type": "bytes32"
        },
        {
          "indexed": false,
          "internalType": "address",
          "name": "protocol",
          "type": "address"
        },
        {
          "indexed": false,
          "internalType": "uint256",
          "name": "amount",
          "type": "uint256"
        },
        {
          "indexed": false,
          "internalType": "uint256",
          "name": "actualReturn",
          "type": "uint256"
        }
      ],
      "name": "StrategyExecuted",
      "type": "event"
    },
    {
      "anonymous": false,
      "inputs": [
        {
          "indexed": true,
          "internalType": "bytes32",
          "name": "strategyId",
          "type": "bytes32"
        },
        {
          "indexed": false,
          "internalType": "string",
          "name": "reason",
          "type": "string"
        }
      ],
      "name": "StrategyReverted",
      "type": "event"
    },
    {
      "inputs": [],
      "name": "SLIPPAGE_TOLERANCE",
      "outputs": [
        {
          "internalType": "uint256",
          "name": "",
          "type": "uint256"
        }
      ],
      "stateMutability": "view",
      "type": "function"
    },
    {
      "inputs": [
        {
          "components": [
            {
              "internalType": "address",
              "name": "protocol",
              "type": "address"
            },
            {
              "internalType": "address",
              "name": "token",
              "type": "address"
            },
            {
              "internalType": "uint256",
              "name": "amount",
              "type": "uint256"
            },
            {
              "internalType": "bytes",
              "name": "data",
              "type": "bytes"
            },
            {
              "internalType": "uint256",
              "name": "minReturn",
              "type": "uint256"
            },
            {
              "internalType": "uint256",
              "name": "deadline",
              "type": "uint256"
            }
          ],
          "internalType": "struct StrategyManager.ExecutionParams",
          "name": "params",
          "type": "tuple"
        }
      ],
      "name": "_executeProtocolInteraction",
      "outputs": [
        {
          "internalType": "uint256",
          "name": "",
          "type": "uint256"
        }
      ],
      "stateMutability": "nonpayable",
      "type": "function"
    },
    {
      "inputs": [
        {
          "internalType": "address",
          "name": "protocol",
          "type": "address"
        },
        {
          "internalType": "address",
          "name": "adapter",
          "type": "address"
        },
        {
          "internalType": "string",
          "name": "protocolName",
          "type": "string"
        }
      ],
      "name": "addProtocolAdapter",
      "outputs": [],
      "stateMutability": "nonpayable",
      "type": "function"
    },
    {
      "inputs": [
        {
          "internalType": "uint256",
          "name": "amount",
          "type": "uint256"
        }
      ],
      "name": "calculateExecutionCost",
      "outputs": [
        {
          "internalType": "uint256",
          "name": "",
          "type": "uint256"
        }
      ],
      "stateMutability": "view",
      "type": "function"
    },
    {
      "inputs": [
        {
          "internalType": "address",
          "name": "protocol",
          "type": "address"
        },
        {
          "internalType": "address",
          "name": "token",
          "type": "address"
        }
      ],
      "name": "emergencyWithdraw",
      "outputs": [],
      "stateMutability": "nonpayable",
      "type": "function"
    },
    {
      "inputs": [
        {
          "components": [
            {
              "internalType": "address",
              "name": "protocol",
              "type": "address"
            },
            {
              "internalType": "address",
              "name": "token",
              "type": "address"
            },
            {
              "internalType": "uint256",
              "name": "amount",
              "type": "uint256"
            },
            {
              "internalType": "bytes",
              "name": "data",
              "type": "bytes"
            },
            {
              "internalType": "uint256",
              "name": "minReturn",
              "type": "uint256"
            },
            {
              "internalType": "uint256",
              "name": "deadline",
              "type": "uint256"
            }
          ],
          "internalType": "struct StrategyManager.ExecutionParams",
          "name": "params",
          "type": "tuple"
        }
      ],
      "name": "executeStrategy",
      "outputs": [
        {
          "internalType": "uint256",
          "name": "actualReturn",
          "type": "uint256"
        }
      ],
      "stateMutability": "nonpayable",
      "type": "function"
    },
    {
      "inputs": [
        {
          "internalType": "bytes32",
          "name": "",
          "type": "bytes32"
        }
      ],
      "name": "executedStrategies",
      "outputs": [
        {
          "internalType": "bool",
          "name": "",
          "type": "bool"
        }
      ],
      "stateMutability": "view",
      "type": "function"
    },
    {
      "inputs": [],
      "name": "executionFee",
      "outputs": [
        {
          "internalType": "uint256",
          "name": "",
          "type": "uint256"
        }
      ],
      "stateMutability": "view",
      "type": "function"
    },
    {
      "inputs": [
        {
          "internalType": "address",
          "name": "protocol",
          "type": "address"
        }
      ],
      "name": "getProtocolInfo",
      "outputs": [
        {
          "internalType": "address",
          "name": "adapterAddress",
          "type": "address"
        },
        {
          "internalType": "string",
          "name": "protocolName",
          "type": "string"
        },
        {
          "internalType": "bool",
          "name": "isActive",
          "type": "bool"
        },
        {
          "internalType": "uint256",
          "name": "totalAllocated",
          "type": "uint256"
        },
        {
          "internalType": "uint256",
          "name": "averageAPY",
          "type": "uint256"
        }
      ],
      "stateMutability": "view",
      "type": "function"
    },
    {
      "inputs": [],
      "name": "getSupportedProtocols",
      "outputs": [
        {
          "internalType": "address[]",
          "name": "",
          "type": "address[]"
        }
      ],
      "stateMutability": "view",
      "type": "function"
    },
    {
      "inputs": [
        {
          "internalType": "address",
          "name": "_yieldOptimizer",
          "type": "address"
        }
      ],
      "name": "initialize",
      "outputs": [],
      "stateMutability": "nonpayable",
      "type": "function"
    },
    {
      "inputs": [],
      "name": "owner",
      "outputs": [
        {
          "internalType": "address",
          "name": "",
          "type": "address"
        }
      ],
      "stateMutability": "view",
      "type": "function"
    },
    {
      "inputs": [
        {
          "internalType": "address",
          "name": "",
          "type": "address"
        }
      ],
      "name": "protocolAdapters",
      "outputs": [
        {
          "internalType": "address",
          "name": "adapterAddress",
          "type": "address"
        },
        {
          "internalType": "string",
          "name": "protocolName",
          "type": "string"
        },
        {
          "internalType": "bool",
          "name": "isActive",
          "type": "bool"
        },
        {
          "internalType": "uint256",
          "name": "totalAllocated",
          "type": "uint256"
        },
        {
          "internalType": "uint256",
          "name": "averageAPY",
          "type": "uint256"
        }
      ],
      "stateMutability": "view",
      "type": "function"
    },
    {
      "inputs": [],
      "name": "renounceOwnership",
      "outputs": [],
      "stateMutability": "nonpayable",
      "type": "function"
    },
    {
      "inputs": [
        {
          "internalType": "uint256",
          "name": "_executionFee",
          "type": "uint256"
        }
      ],
      "name": "setExecutionFee",
      "outputs": [],
      "stateMutability": "nonpayable",
      "type": "function"
    },
    {
      "inputs": [
        {
          "internalType": "address",
          "name": "protocol",
          "type": "address"
        },
        {
          "internalType": "bool",
          "name": "status",
          "type": "bool"
        }
      ],
      "name": "setProtocolStatus",
      "outputs": [],
      "stateMutability": "nonpayable",
      "type": "function"
    },
    {
      "inputs": [
        {
          "internalType": "uint256",
          "name": "",
          "type": "uint256"
        }
      ],
      "name": "supportedProtocols",
      "outputs": [
        {
          "internalType": "address",
          "name": "",
          "type": "address"
        }
      ],
      "stateMutability": "view",
      "type": "function"
    },
    {
      "inputs": [
        {
          "internalType": "address",
          "name": "newOwner",
          "type": "address"
        }
      ],
      "name": "transferOwnership",
      "outputs": [],
      "stateMutability": "nonpayable",
      "type": "function"
    },
    {
      "inputs": [
        {
          "internalType": "address",
          "name": "protocol",
          "type": "address"
        },
        {
          "internalType": "uint256",
          "name": "newAPY",
          "type": "uint256"
        }
      ],
      "name": "updateProtocolAPY",
      "outputs": [],
      "stateMutability": "nonpayable",
      "type": "function"
    },
    {
      "inputs": [
        {
          "internalType": "address",
          "name": "protocol",
          "type": "address"
        },
        {
          "internalType": "address",
          "name": "token",
          "type": "address"
        },
        {
          "internalType": "uint256",
          "name": "amount",
          "type": "uint256"
        }
      ],
      "name": "withdrawFromProtocol",
      "outputs": [
        {
          "internalType": "uint256",
          "name": "actualAmount",
          "type": "uint256"
        }
      ],
      "stateMutability": "nonpayable",
      "type": "function"
    },
    {
      "inputs": [],
      "name": "yieldOptimizer",
      "outputs": [
        {
          "internalType": "address",
          "name": "",
          "type": "address"
        }
      ],
      "stateMutability": "view",
      "type": "function"
    }
  ],
  "bytecode": "0x608060405234801561001057600080fd5b50611fea806100206000396000f3fe608060405234801561001057600080fd5b50600436106101375760003560e01c8063715018a6116100b8578063c4d66de81161007c578063c4d66de81461028e578063c7ec197c146102a1578063d2c7912d146102b4578063defadfc3146102c7578063e881978f146102da578063f2fde38b146102ed57600080fd5b8063715018a6146102455780637b4cab3d1461024d5780638a201238146102605780638da5cb5b146102735780638e700fd81461027b57600080fd5b80634c203786116100ff5780634c203786146101b7578063532913a5146101bf57806363114397146101d45780636382d9ad1461020757806368e84aef1461021a57600080fd5b806303c490061461013c57806328934c6f146101625780633655c6471461017557806337a063d21461019957806340e9903b146101ae575b600080fd5b61014f61014a366004611875565b610300565b6040519081526020015b60405180910390f35b61014f610170366004611875565b61079c565b6101886101833660046118d3565b610919565b60405161015995949392919061193e565b6101ac6101a736600461197f565b6109e0565b005b61014f60045481565b61014f606481565b6101c7610a2e565b6040516101599190611998565b6101f76101e236600461197f565b60016020526000908152604090205460ff1681565b6040519015158152602001610159565b6101ac6102153660046119e5565b610a90565b61022d61022836600461197f565b610d58565b6040516001600160a01b039091168152602001610159565b6101ac610d82565b60025461022d906001600160a01b031681565b61018861026e3660046118d3565b610d96565b61022d610e7c565b6101ac610289366004611a18565b610eaa565b6101ac61029c3660046118d3565b61107e565b6101ac6102af366004611aa6565b6111a2565b61014f6102c2366004611ae2565b6111d8565b61014f6102d536600461197f565b6113e8565b6101ac6102e8366004611b1e565b61140b565b6101ac6102fb3660046118d3565b611432565b6002546000906001600160a01b031633146103625760405162461bcd60e51b815260206004820152601c60248201527f4f6e6c79205969656c644f7074696d697a65722063616e2063616c6c0000000060448201526064015b60405180910390fd5b61036f60208301836118d3565b6001600160a01b03811660009081526020819052604090206002015460ff166103aa5760405162461bcd60e51b815260040161035990611b48565b6103b2611470565b60008360400135116103f75760405162461bcd60e51b815260206004820152600e60248201526d125b9d985b1a5908185b5bdd5b9d60921b6044820152606401610359565b428360a00135101561044b5760405162461bcd60e51b815260206004820152601960248201527f457865637574696f6e20646561646c696e6520706173736564000000000000006044820152606401610359565b600061045a60208501856118d3565b61046a60408601602087016118d3565b604080516bffffffffffffffffffffffff19606094851b811660208301529290931b9091166034830152850135604882015242606882015260880160408051601f1981840301815291815281516020928301206000818152600190935291205490915060ff161561051d5760405162461bcd60e51b815260206004820152601960248201527f537472617465677920616c7265616479206578656375746564000000000000006044820152606401610359565b600254610553906001600160a01b031630604087018035906105429060208a016118d3565b6001600160a01b03169291906114a8565b6040516328934c6f60e01b815230906328934c6f90610576908790600401611ba1565b6020604051808303816000875af19250505080156105b1575060408051601f3d908101601f191682019092526105ae91810190611c56565b60015b61066e576105bd611c6f565b806308c379a00361066257506105d1611cce565b806105dc5750610664565b600254610610906001600160a01b0316604087018035906106009060208a016118d3565b6001600160a01b03169190611515565b817fab75fb2b8ab2bf14d615c1a2416d5f1a526536ae94f6943f19409da2138f1f8f826040516106409190611d58565b60405180910390a28060405162461bcd60e51b81526004016103599190611d58565b505b3d6000803e3d6000fd5b80935084608001358410156106bb5760405162461bcd60e51b815260206004820152601360248201527224b739bab33334b1b4b2b73a103932ba3ab93760691b6044820152606401610359565b6000828152600160208181526040808420805460ff191690931790925590870135919081906106ec908901896118d3565b6001600160a01b03166001600160a01b03168152602001908152602001600020600301600082825461071e9190611d81565b909155508290507f57fe4e11f1f26fb5f03d031e487a99a5f760d8d04d8e2544600ad508f15112e861075360208801886118d3565b604080516001600160a01b039092168252808901356020830152810187905260600160405180910390a250506107966001600080516020611f9583398151915255565b50919050565b60003330146107e15760405162461bcd60e51b815260206004820152601160248201527024b73a32b93730b610333ab731ba34b7b760791b6044820152606401610359565b600080806107f260208601866118d3565b6001600160a01b0390811682526020808301939093526040918201600020805490945061083d93911691860180359161082d919088016118d3565b6001600160a01b0316919061155f565b805460009081906001600160a01b031661085a6060870187611d94565b604051610868929190611de2565b6000604051808303816000865af19150503d80600081146108a5576040519150601f19603f3d011682016040523d82523d6000602084013e6108aa565b606091505b5091509150816108fc5760405162461bcd60e51b815260206004820152601b60248201527f50726f746f636f6c20696e746572616374696f6e206661696c656400000000006044820152606401610359565b808060200190518101906109109190611c56565b95945050505050565b600060208190529081526040902080546001820180546001600160a01b03909216929161094590611df2565b80601f016020809104026020016040519081016040528092919081815260200182805461097190611df2565b80156109be5780601f10610993576101008083540402835291602001916109be565b820191906000526020600020905b8154815290600101906020018083116109a157829003601f168201915b5050505060028301546003840154600490940154929360ff9091169290915085565b6109e86115e9565b6103e8811115610a295760405162461bcd60e51b815260206004820152600c60248201526b08ccaca40e8dede40d0d2ced60a31b6044820152606401610359565b600455565b60606003805480602002602001604051908101604052809291908181526020018280548015610a8657602002820191906000526020600020905b81546001600160a01b03168152600190910190602001808311610a68575b5050505050905090565b610a986115e9565b6001600160a01b038216600090815260208190526040902060020154829060ff16610ad55760405162461bcd60e51b815260040161035990611b48565b6001600160a01b03838116600090815260208190526040808220905192851660248401529160440160408051601f198184030181529181526020820180516001600160e01b031663f8b2cb4f60e01b1790528354905191925060009182916001600160a01b031690610b48908590611e26565b6000604051808303816000865af19150503d8060008114610b85576040519150601f19603f3d011682016040523d82523d6000602084013e610b8a565b606091505b509150915081610bd45760405162461bcd60e51b81526020600482015260156024820152744661696c656420746f206765742062616c616e636560581b6044820152606401610359565b600081806020019051810190610bea9190611c56565b90508015610d4e576040516001600160a01b038816602482015260009060440160408051601f198184030181529181526020820180516001600160e01b0316631bfc726f60e21b179052875490519192506001600160a01b031690610c50908390611e26565b6000604051808303816000865af19150503d8060008114610c8d576040519150601f19603f3d011682016040523d82523d6000602084013e610c92565b606091505b50508094505083610ce55760405162461bcd60e51b815260206004820152601b60248201527f456d657267656e6379207769746864726177616c206661696c656400000000006044820152606401610359565b610d01610cf0610e7c565b6001600160a01b038a169084611515565b604080516001600160a01b03808c1682528a1660208201529081018390527ff24ef89f38eadc1bde50701ad6e4d6d11a2dc24f7cf834a486991f38833285049060600160405180910390a1505b5050505050505050565b60038181548110610d6857600080fd5b6000918252602090912001546001600160a01b0316905081565b610d8a6115e9565b610d94600061161b565b565b6001600160a01b03808216600090815260208190526040812080546002820154600383015460048401546001850180549697606097899788978897919693169460ff90911692918490610de890611df2565b80601f0160208091040260200160405190810160405280929190818152602001828054610e1490611df2565b8015610e615780601f10610e3657610100808354040283529160200191610e61565b820191906000526020600020905b815481529060010190602001808311610e4457829003601f168201915b50505050509350955095509550955095505091939590929450565b7f9016d09d72d40fdae2fd8ceac6b6234c7706214fd39c1cd1e609a0528c199300546001600160a01b031690565b610eb26115e9565b6001600160a01b03841615801590610ed257506001600160a01b03831615155b610f125760405162461bcd60e51b8152602060048201526011602482015270496e76616c69642061646472657373657360781b6044820152606401610359565b6040518060a00160405280846001600160a01b0316815260200183838080601f0160208091040260200160405190810160405280939291908181526020018383808284376000920182905250938552505060016020808501829052604080860185905260609095018490526001600160a01b038a8116855284825294909320855181546001600160a01b03191695169490941784559184015191830191610fba915082611e88565b5060408281015160028301805460ff1916911515919091179055606083015160038084019190915560809093015160049092019190915581546001810183556000929092527fc2575a0e9e593c00f959f8c92f12db2869c3395a3b0502d05e2516446f71f85b90910180546001600160a01b0319166001600160a01b03878116918217909255825190815290851660208201527f0a833c181b468c4112674ae76a9130cf251aeabc0ac830ac4321baf03427dd8d910160405180910390a150505050565b600061108861168c565b805490915060ff600160401b820416159067ffffffffffffffff166000811580156110b05750825b905060008267ffffffffffffffff1660011480156110cd5750303b155b9050811580156110db575080155b156110f95760405163f92ee8a960e01b815260040160405180910390fd5b845467ffffffffffffffff19166001178555831561112357845460ff60401b1916600160401b1785555b61112c336116b5565b6111346116c6565b600280546001600160a01b0319166001600160a01b0388161790556032600455831561119a57845460ff60401b19168555604051600181527fc7f505b2f371ae2175ee4913f4499e1f2633a7b5936321eed1cdaeb6115181d29060200160405180910390a15b505050505050565b6111aa6115e9565b6001600160a01b03919091166000908152602081905260409020600201805460ff1916911515919091179055565b6002546000906001600160a01b031633146112355760405162461bcd60e51b815260206004820152601c60248201527f4f6e6c79205969656c644f7074696d697a65722063616e2063616c6c000000006044820152606401610359565b6001600160a01b038416600090815260208190526040902060020154849060ff166112725760405162461bcd60e51b815260040161035990611b48565b61127a611470565b6001600160a01b0385811660009081526020819052604080822090519287166024840152604483018690529160640160408051601f198184030181529181526020820180516001600160e01b031663f3fef3a360e01b1790528354905191925060009182916001600160a01b0316906112f4908590611e26565b6000604051808303816000865af19150503d8060008114611331576040519150601f19603f3d011682016040523d82523d6000602084013e611336565b606091505b50915091508161137c5760405162461bcd60e51b815260206004820152601160248201527015da5d1a191c985dd85b0819985a5b1959607a1b6044820152606401610359565b808060200190518101906113909190611c56565b9550868460030160008282546113a69190611f48565b90915550506002546113c5906001600160a01b038a8116911688611515565b505050506113e06001600080516020611f9583398151915255565b509392505050565b6000612710600454836113fb9190611f5b565b6114059190611f72565b92915050565b6114136115e9565b6001600160a01b03909116600090815260208190526040902060040155565b61143a6115e9565b6001600160a01b03811661146457604051631e4fbdf760e01b815260006004820152602401610359565b61146d8161161b565b50565b600080516020611f958339815191528054600119016114a257604051633ee5aeb560e01b815260040160405180910390fd5b60029055565b6040516001600160a01b03848116602483015283811660448301526064820183905261150f9186918216906323b872dd906084015b604051602081830303815290604052915060e01b6020820180516001600160e01b0383818316178352505050506116d6565b50505050565b6040516001600160a01b0383811660248301526044820183905261154691859182169063a9059cbb906064016114dd565b505050565b6001600080516020611f9583398151915255565b604051636eb1769f60e11b81523060048201526001600160a01b0383811660248301526000919085169063dd62ed3e90604401602060405180830381865afa1580156115af573d6000803e3d6000fd5b505050506040513d601f19601f820116820180604052508101906115d39190611c56565b905061150f84846115e48585611d81565b611747565b336115f2610e7c565b6001600160a01b031614610d945760405163118cdaa760e01b8152336004820152602401610359565b7f9016d09d72d40fdae2fd8ceac6b6234c7706214fd39c1cd1e609a0528c19930080546001600160a01b031981166001600160a01b03848116918217845560405192169182907f8be0079c531659141344cd1fd0a4f28419497f9722a3daafe3b4186f6b6457e090600090a3505050565b6000807ff0c57e16840df040f15088dc2f81fe391c3923bec73e23a9662efc9c229c6a00611405565b6116bd6117d7565b61146d816117fc565b6116ce6117d7565b610d94611804565b600080602060008451602086016000885af1806116f9576040513d6000823e3d81fd5b50506000513d9150811561171157806001141561171e565b6001600160a01b0384163b155b1561150f57604051635274afe760e01b81526001600160a01b0385166004820152602401610359565b604080516001600160a01b038416602482015260448082018490528251808303909101815260649091019091526020810180516001600160e01b031663095ea7b360e01b179052611798848261180c565b61150f576040516001600160a01b038481166024830152600060448301526117cd91869182169063095ea7b3906064016114dd565b61150f84826116d6565b6117df61185b565b610d9457604051631afcd79f60e31b815260040160405180910390fd5b61143a6117d7565b61154b6117d7565b6000806000806020600086516020880160008a5af192503d91506000519050828015611851575081156118425780600114611851565b6000866001600160a01b03163b115b9695505050505050565b600061186561168c565b54600160401b900460ff16919050565b60006020828403121561188757600080fd5b813567ffffffffffffffff81111561189e57600080fd5b820160c081850312156118b057600080fd5b9392505050565b80356001600160a01b03811681146118ce57600080fd5b919050565b6000602082840312156118e557600080fd5b6118b0826118b7565b60005b838110156119095781810151838201526020016118f1565b50506000910152565b6000815180845261192a8160208601602086016118ee565b601f01601f19169290920160200192915050565b6001600160a01b038616815260a06020820181905260009061196290830187611912565b941515604083015250606081019290925260809091015292915050565b60006020828403121561199157600080fd5b5035919050565b6020808252825182820181905260009190848201906040850190845b818110156119d95783516001600160a01b0316835292840192918401916001016119b4565b50909695505050505050565b600080604083850312156119f857600080fd5b611a01836118b7565b9150611a0f602084016118b7565b90509250929050565b60008060008060608587031215611a2e57600080fd5b611a37856118b7565b9350611a45602086016118b7565b9250604085013567ffffffffffffffff80821115611a6257600080fd5b818701915087601f830112611a7657600080fd5b813581811115611a8557600080fd5b886020828501011115611a9757600080fd5b95989497505060200194505050565b60008060408385031215611ab957600080fd5b611ac2836118b7565b915060208301358015158114611ad757600080fd5b809150509250929050565b600080600060608486031215611af757600080fd5b611b00846118b7565b9250611b0e602085016118b7565b9150604084013590509250925092565b60008060408385031215611b3157600080fd5b611b3a836118b7565b946020939093013593505050565b602080825260169082015275141c9bdd1bd8dbdb081b9bdd081cdd5c1c1bdc9d195960521b604082015260600190565b81835281816020850137506000828201602090810191909152601f909101601f19169091010190565b6020815260006001600160a01b0380611bb9856118b7565b16602084015280611bcc602086016118b7565b16604084015250604083013560608301526060830135601e19843603018112611bf457600080fd5b830160208101903567ffffffffffffffff811115611c1157600080fd5b803603821315611c2057600080fd5b60c06080850152611c3560e085018284611b78565b915050608084013560a084015260a084013560c08401528091505092915050565b600060208284031215611c6857600080fd5b5051919050565b600060033d1115611c885760046000803e5060005160e01c5b90565b634e487b7160e01b600052604160045260246000fd5b601f8201601f1916810167ffffffffffffffff81118282101715611cc757611cc7611c8b565b6040525050565b600060443d1015611cdc5790565b6040516003193d81016004833e81513d67ffffffffffffffff8160248401118184111715611d0c57505050505090565b8285019150815181811115611d245750505050505090565b843d8701016020828501011115611d3e5750505050505090565b611d4d60208286010187611ca1565b509095945050505050565b6020815260006118b06020830184611912565b634e487b7160e01b600052601160045260246000fd5b8082018082111561140557611405611d6b565b6000808335601e19843603018112611dab57600080fd5b83018035915067ffffffffffffffff821115611dc657600080fd5b602001915036819003821315611ddb57600080fd5b9250929050565b8183823760009101908152919050565b600181811c90821680611e0657607f821691505b60208210810361079657634e487b7160e01b600052602260045260246000fd5b60008251611e388184602087016118ee565b9190910192915050565b601f82111561154657600081815260208120601f850160051c81016020861015611e695750805b601f850160051c820191505b8181101561119a57828155600101611e75565b815167ffffffffffffffff811115611ea257611ea2611c8b565b611eb681611eb08454611df2565b84611e42565b602080601f831160018114611eeb5760008415611ed35750858301515b600019600386901b1c1916600185901b17855561119a565b600085815260208120601f198616915b82811015611f1a57888601518255948401946001909101908401611efb565b5085821015611f385787850151600019600388901b60f8161c191681555b5050505050600190811b01905550565b8181038181111561140557611405611d6b565b808202811582820484141761140557611405611d6b565b600082611f8f57634e487b7160e01b600052601260045260246000fd5b50049056fe9b779b17422d0df92223018b32b4d1fa46e071723d6817e2486d003becc55f00a264697066735822122018e538ef6c2aaa367a0f1ee18a357990ef6fae543d31cf16925bc2fa57f8d61764736f6c63430008140033",
  "linkReferences": {},
  "deployedLinkReferences": {}
}